:020000040800F2
:1000000068090020D5000008051500087D140008C7
:1000100000000000000000000000000000000000E0
:100020000000000000000000000000009315000820
:100030000000000000000000911500089515000860
:10004000E7000008E7000008E7000008E7000008F4
:10005000E7000008E7000008E7000008E7000008E4
:10006000E7000008E7000008E7000008E7000008D4
:10007000E7000008E7000008E7000008E7000008C4
:10008000E700000839160008E7000008E70000084C
:10009000E7000008E7000008E7000008E7000008A4
:1000A000E7000008E7000008E7000008491600081C
:1000B000E70000081D170008E7000008E700000837
:1000C0000348854600F06AFA0048004741240008CA
:1000D000680900200448804704480047FEE7FEE71F
:1000E000FEE7FEE7FEE7FEE7DD150008C1000008B9
:1000F00030B50B46014600202022012409E00D46C0
:10010000D5409D4205D31D469540491B2546954047
:1001100040191546521E002DF1DC30BD70B500248B
:100120002546002801DA01244042002901DA012590
:100130004942FFF7DDFFAC4200D04042002C00D026
:10014000494270BD10B5202A04DB0846203AD04051
:10015000002110BD0B46D340D0402024A21A91406C
:100160000843194610BD03460B439B0703D009E023
:1001700008C9121F08C0042AFAD203E00B780370E2
:10018000401C491C521EF9D27047D2B201E00270E5
:10019000401C491EFBD270470022F6E710B51346FB
:1001A0000A4604461946FFF7F0FF204610BDF0B599
:1001B0001FB40646002082B00546402401910090FD
:1001C0001BE0019922460F463046FFF7BBFF049A19
:1001D000059B801A994110D310461946224600F01B
:1001E000EFF9361A8F410197224601200021009F26
:1001F00000F0E6F938184D4100902046641E0028B2
:10020000DFDC019B00982946324607B0F0BD0000B4
:10021000F0B507460846584087B0C00F0490480024
:100220000E46590040084908BC1A884105D2384694
:1002300031461E4617460B460246580040081043FA
:100240004CD0300D039040055900400D490D0590EC
:10025000401A0290402872DA18030121000B0905A8
:100260000843019004980092002805D00199524259
:100270000020884100920190029840210A1A0199B9
:10028000009800F09DF905460C466B4607CB00F040
:10029000A7F9C0197141039A0E0D0023D7175640D4
:1002A0001A467A40164344D0049A002A2DD0029A66
:1002B000012A039A15DC1205C01A91410126360560
:1002C000001C7141D20F059ED20700930192029645
:1002D0002A46234600F0A4F907B0F0BD384631465F
:1002E000FAE71605224A0F46B218C01AB741012193
:1002F0000905001C4F4100187F411146181879412B
:10030000E20F10436D19644113E0E2076D081543D5
:100310006408C2071443039A01261205C01A9141CA
:100320003605001C7141CE07400830434908C0180B
:1003300051412A46234600F066F9CDE7FFE70498CD
:1003400001224000C117121A00238B410498314644
:10035000C417381AA141EEE730B40124E407634022
:1003600030BC55E730B40124E407614030BC4FE7AE
:100370000000E0FFF0B51FB488B00B990998002485
:1003800048400999C00F490049080991C0070B99D5
:100390000090490049080B9109990898A64608431E
:1003A0001CD00B990A98084318D0099801244000E2
:1003B000420D4800410D099824050003000B20431D
:1003C00009900B980003000B20430B9050181C4918
:1003D0004018002201901446104605E00020014616
:1003E0000DB0F0BD032801DA034600E003239C466C
:1003F000C11A0AAE0AE05F0008ADED5B4F00F75B83
:100400007D430027AA187C41491C5B1E6145F2DD33
:10041000410004AB5A522104120C0A43240C401C24
:100420000828DFDB01980290009970460191009046
:10043000059B049A0799069800F0F2F8D0E70000AF
:100440000DFCFFFFF0B50C465C4085B0E40FE407FF
:1004500003944C000026640859009446490802465B
:100460000296224321D062460A431ED06200570DF5
:100470004A000E032303550D012402462C4924058E
:10048000781B1B0B360B4018234326436146009014
:100490001C46501AB44103D30098401C009002E05F
:1004A000921800985B41002803DA0020014605B04D
:1004B000F0BD0020012109050746864611E064468B
:1004C0001D46141BB54106D36546521BB341744605
:1004D00007430C43A646CD07400849082843921815
:1004E0005B4105460D43EAD11046184313D06046E0
:1004F000194650407140084306D06046101AB34177
:1005000006D20122002306E000220123DB0702E0DD
:100510000122D2435310009874460105381C6141F2
:10052000029C039D0019694100F06DF8BFE70000CF
:10053000FD0300004A0009030123090B1B051943B1
:100540000A4B10B5520D9A4202DA0020014610BD46
:10055000064B34339A4203DC9A1AFFF7F3FD10BDC1
:10056000034BD21800F02CF810BD0000FF03000070
:10057000CDFBFFFF10B5002904DB0124E407404256
:100580008C412146002B04DB1C460123DB07524231
:10059000A341994200D1904210BD0000064C0125B4
:1005A000064E05E0E36807CC2B430C3C984710341B
:1005B000B442F7D3FFF788FD80290008A02900087E
:1005C00010B5202A04DB0146203A9140002010BDDE
:1005D000914020239C1A0346E3401943904010BDEC
:1005E00010B5202A06DBCB170846203A1041C11768
:1005F0000B4306E00B461341D0402024A21A914041
:100600000843194610BD10B5002B08DA0024401C21
:10061000614192185B411A4301D14008400010BD6E
:10062000F0B51FB482B005460C0003D0084601F0B7
:10063000FDF802E001F0FAF8203002460090214671
:100640002846FFF7BDFF049B059A04460F46184352
:100650001143084314D0184610431BD00098402182
:100660000A1A18460599FFF76DFD05460E46009AD1
:1006700005990498FFF7A4FF084305D0012004E082
:100680002046394607B0F0BD0020C11705430E4390
:100690002C43374300990E986305401A7905E40A04
:1006A00000220C43FD0A0A3002D500200146E9E78A
:1006B0000105101969410C9C0D9D00196941FFF756
:1006C000A2FFDFE710B523A001F0A0F800F0CAFFF9
:1006D000264CAA21204602F0E5F80021204602F02F
:1006E000E1F80721204602F0DDF80121204602F062
:1006F000D9F80021204602F0D5F8AA21204602F0C0
:10070000D1F80021204602F0CDF83E21204602F02B
:10071000C9F80121204602F0C5F80021204602F068
:10072000C1F8AA21204602F0BDF80021204602F0BF
:10073000B9F83D21204602F0B5F80121204602F02B
:10074000B1F80C21204602F0ADF809A001F05EF8E6
:1007500010BD0000496E697469616C697A696E67E1
:1007600020424E4F3035352E2E2E0A0000380140E3
:10077000424E4F30353520496E697469616C697A33
:100780006174696F6E20436F6D706C657465210ACA
:100790000000000010B5094CAA21204602F082F8A2
:1007A0000121204602F07EF81A21204602F07AF854
:1007B0000621204602F076F810BD00000038014006
:1007C0000849097800290AD08103064A490EB03A3F
:1007D000515C4005400FC140C807C00F7047002062
:1007E000704700004005002010B500F097F9094B54
:1007F0000446EFF3108272B699699861002A00D11D
:1008000062B68C4203D20348103001F08BFC2046C4
:1008100010BD000040050020FEB515460E00044640
:1008200003D001204002854201D90020FEBD2046B0
:10083000FFF7C6FF00280AD0FFF7D6FFA1B200904D
:10084000EFF30580002804D00124E40402E0012035
:10085000FEBD00240C43002D0FD0082D12D800201F
:10086000019002902A46314601A8FFF77CFC6807F8
:10087000400B2043032109063EE000231A46204690
:1008800000993CE000F0ECF94007470B08223146A4
:1008900001A8FFF768FC20460121384309060843F8
:1008A00069460EC9083D083600F02EF80028CFD062
:1008B00014483C4604430EE00822314601A8FFF7E5
:1008C00052FC6F460ECF2046641C083D083600F0EF
:1008D0001BF80028BCD0082DEED800200190029013
:1008E0002A46314601A8FFF73EFCFF200002844360
:1008F000280220430121490608436F460ECF00F02D
:1009000003F8FEBD01FF0000FFB581B01D460E4695
:100910004024334801F006FC8006810D3148081858
:10092000EFF3108372B6C1684A0104D50127FF06B0
:100930000A46BA4302E0032292060A43C260002B31
:1009400000D162B64A0143D4012212058B180F224E
:1009500012051340D2028A43710049081143016015
:10096000039949004908114341606900490811434E
:10097000816001991943F3081B0F1B071943039B5F
:100980009B085B0F5B0719436B089B0F9B07194381
:100990001143EFF3108372B6C268170104D5012228
:1009A000D2061143012206E011460122920691432C
:1009B000520151400022C160002B00D162B6002AD2
:1009C00006D00748001D01F0ADFB012005B0F0BDC9
:1009D000641E9ED10248083001F0A4FB0020F5E718
:1009E0004405002090000020F0B58C468646FF2983
:1009F00001D2FF2A01D30020F0BD00252C460121A1
:100A0000A140734619420FD063460BE0D808401945
:100A1000084E5907365C490F01278F403E43054F6A
:100A20005B1C3E549342F1D9641C2035042CE6D360
:100A30000120F0BD90040020F8B50646304B314847
:100A4000314C0D46182219780902484008215B1CD8
:100A5000070403D54004000C604001E04004000C92
:100A6000491EF5D1521EEED1284C294A236A012194
:100A7000934201D0226202E06288824202D060800A
:100A8000E1611CE0E069401CE061012817D0002012
:100A9000204B0325AD060101C918CA68560101D5CE
:100AA000AA43CA60401C4028F5D3FFF79DFE0146CB
:100AB00000231948E269FFF727FF0120F8BD012153
:100AC00089021448FFF768FB10488021B038FFF70F
:100AD00063FBFE2200213046FFF786FF002D01D088
:100AE000012000E000202070002565706560A56091
:100AF000E56000F01BF8A56125616061D5E70000A5
:100B000068290008FFFF00002110000040050020B8
:100B10006B27A5E19000002000FF00030249086850
:100B2000421C0A607047000080000020014900203C
:100B3000086070478000002008B507A000F066FE3E
:100B400000200346009001223C210A4800F024F8CE
:100B500009A000F05BFE08BD496E697469616C69AB
:100B60007A6174696F6E204750494F732E2E2E0A9A
:100B700000000000000400484750494F20496E69BA
:100B80007469616C697A6174696F6E20436F6D700E
:100B90006C657465210A0000F0B59E4694460E46C9
:100BA00005460923DB0628482849294F294A2A4CAB
:100BB00087B09D4202D16169C00125E0854208D11C
:100BC000616901208004014361616169014005910F
:100BD0000AE08D4208D161690120C00401436161CE
:100BE0006169014005910AE0BD4208D161690120B7
:100BF0000005014361616169014005910AE0954288
:100C000008D16169012040050143616161690140CA
:100C1000059106E01148854203D1616901208005F4
:100C2000F2E760460190704602900C98039000969F
:100C30006946284600F030F800223146284600F088
:100C4000D7F807B0F0BD00000004004800080048D5
:100C5000000C00480010004800100240001400483A
:100C60000549EFF3108272B64878431C4B70002A96
:100C700000D162B6704700004005002031B500F099
:100C8000BDF8009C0546601C00D0641C00F0B6F85E
:100C9000401BA042FAD338BDF8B5002393E02246AA
:100CA00001249C40A44622407ED04C68022C01D0F6
:100CB000122C0CD1DC08A40027183C6A5D07ED0E4D
:100CC0000F26AE40B4430E69AE4026433E6205682F
:100CD0005E000324B4400F79A543BF07BF0FB740A0
:100CE0002F4307604D68012D05D0022D03D0112D33
:100CF00001D0122D0ED18568CF68A543B7402F4390
:100D0000876047686546AF430D79ED06ED0F9D405E
:100D10003D434560C568A5438C68B4402C43C4601E
:100D20004C68E4004ED52B4CA56901263543A561DE
:100D3000A4699D0834400094274CAD002F19BC686D
:100D40009D072E0F0F25B540AC430925ED06A8429F
:100D500001D1002514E0214DA84201D101250FE069
:100D60001F4DA84201D102250AE01E4DA84201D123
:100D7000032505E01C4DA84201D1042500E005250E
:100D8000B5402543BD60194C25684E689543F60370
:100D900000D51543256065684E689543B60300D5B8
:100DA00015436560A56800E00CE04E689543F602C7
:100DB00000D51543A560E5684E689543B60200D599
:100DC0001543E5605B1C0A681446DA4000D066E70C
:100DD000F8BD00000010024000000140000400487F
:100DE00000080048000C00480010004800040140C2
:100DF000002A01D081617047816270470148006814
:100E0000704700002C00002002480168491C016066
:100E1000704700002C00002010B506480168102221
:100E200011430160002000F007F800F017F80020DF
:100E300010BD00000020024010B5044600F0D0F8BC
:100E40007D21C900FFF754F900F000FB0022214684
:100E5000501E00F017F8002010BD000008B508482B
:100E60008169012211438161816911400091C26948
:100E700001040A43C261C0690840009008BD000037
:100E80000010024010B500F061FB10BDF8B505463A
:100E90004E480E460068C007C00FB0420AD24B4809
:100EA000016849084900314301600068C007C00F6C
:100EB000B04270D12878464C800705D56068F02193
:100EC0008843A968084360602878C00753D06868E1
:100ED000012817D0022818D0032819D021688907C3
:100EE000002958DA61688908890001436160FFF7C9
:100EF00085FF69680746012913D002291DD00329FF
:100F000027D034E021688903EAE721688901E7E70F
:100F1000616BC903E4E7FFF771FFC11B2D488142F4
:100F200023D860680007800F0128F4D123E0FFF781
:100F300065FFC11B2748814217D860680007800FF2
:100F40000228F4D117E0FFF759FFC11B2148814265
:100F50000BD860680007800F0328F4D10BE0FFF77F
:100F60004DFFC11B1B48814201D90320F8BD6068B9
:100F70000007800FF3D115480168C907C90FB142B6
:100F80000BD9016849084900314301600068C00776
:100F9000C00FB04201D00120F8BD2878400706D527
:100FA0006068072109028843E9680843606000F02F
:100FB0001DF86168084A0906090F515CC8400749D5
:100FC00008600020FFF738FF0020F8BD0020024035
:100FD000001002408813000058290008300000204B
:100FE00001480068704700003000002030B516A3AB
:100FF0000FCB89B06C460FC417A30FCB0FC41A498F
:101000004A680C20144604401848042C05D0184B9C
:10101000082C04D00C2C00D1184609B030BD940225
:10102000240F6D462C5DC96A04AD0907090FD20370
:10103000695C920F022A02D0032A00D11846FFF7FA
:1010400057F86043E9E700000203040506070809B2
:101050000A0B0C0D0E0F1010010203040506070801
:10106000090A0B0C0D0E0F100010024000127A003E
:10107000006CDC02FEB504460078F04EF04DC0076F
:1010800048D068680007800F01281FD068680007F3
:10109000800F022804D16868C003800F022815D091
:1010A0006168012919D001208004002901D0052997
:1010B00017D02968B1432960296881432960606895
:1010C00000281BD0FFF79AFE074613E0286880032C
:1010D00020D56068002876D01CE02868304328605E
:1010E000EDE7296801432960F7E7FFF787FEC01B9A
:1010F000642869D828688003F7D50BE0FFF77EFEE7
:10110000074604E0FFF77AFEC01B6428F1D8286880
:101110008003F7D4207880073ED568680007800FE9
:1011200014D068680007800F022804D16868C003E3
:10113000800F01280AD0E068002828681DD001210E
:1011400008432860FFF75AFE07460BE0286880072F
:101150000BD5E068012836D107E0FFF74FFEC01B32
:101160000228C6D828688007F7D52868F821884360
:101170002169C900084328600EE04008400028604B
:10118000FFF73CFE074604E0FFF738FEC01B0228CD
:10119000AFD828688007F7D42078000724D5E06905
:1011A0000028686A11D0012108436862FFF726FE13
:1011B000074604E0FFF722FEC01B022899D8686AA0
:1011C0008007F7D510E036E1D1E0400840006862C2
:1011D000FFF714FE074604E0FFF710FEC01B0228CD
:1011E00087D8686A8007F7D420780427400700284A
:1011F00061DA00200190E869C00008D4E969B80606
:101200000143E961E96901400120009101908D48A5
:101210000168C90511D40168821511430160FFF707
:10122000EDFD009005E0FFF7E9FD0099401A642804
:1012300097D884480068C005F5D5A06801280AD071
:10124000002801D0052811D0286A400840002862F3
:10125000286AB84302E0286A012108432862A0688E
:10126000002812D0FFF7CAFD00900AE0286A384330
:101270002862F0E7FFF7C2FD0099411A72488142E7
:1012800075D8286A8007F5D50DE0FFF7B7FD009007
:1012900006E0FFF7B3FD0099411A6B48814266D81A
:1012A000286A8007F5D40198002804D0E969012054
:1012B00000078143E9612078C00635D560690128BF
:1012C0000CD0401D686B24D038436863686B4008BD
:1012D00040006863FFF792FD074622E0686B3843E1
:1012E0006863686B012108436863FFF787FD074661
:1012F00004E0FFF783FDC01B022838D8686B800725
:10130000F7D5686BF8218843A169C9000843686371
:101310000AE0B8436863F4E7FFF770FDC01B0228DA
:1013200025D8686B8007F7D42078800637D56868A1
:101330000007800F032813D068680007800F022879
:1013400004D16868C003800F032809D0206A0028F0
:10135000686B16D030436863FFF750FD06460CE01B
:10136000686BC0031BD5206A012864D117E05BE0DD
:10137000FFF744FD801B022856D8686BC003F7D5E1
:101380000DE0B0436863FFF739FD064604E0FFF760
:1013900035FD801B022847D8686BC003F7D4606A0C
:1013A000002846D069680907890F022943D0012621
:1013B00036060228286805D0B0432860FFF71EFDD6
:1013C000044633E0B0432860FFF718FD074604E009
:1013D000FFF714FDC01B022826D828688001F7D427
:1013E000E86A216B000900010843E862A16AE06A2B
:1013F000084369687B22D2039143084368602868E8
:1014000030432860FFF7FAFC044604E0FFF7F6FCDF
:10141000001B022808D828688001F7D509E0FFF7EB
:10142000EDFC001B022801D90320FEBD28688001C5
:10143000F5D40020FEBD0120FEBD0000000001002B
:10144000001002400070004088130000094910B5E8
:10145000401E884201D9012010BD074C6061032164
:10146000081F00F073F80020A06107202061002011
:1014700010BD0000FFFFFF0000E000E0FEE70000FD
:1014800010B510A000F0C2F9144841690122D2043D
:101490001143416112480268552109030A43026061
:1014A00042680F239B019A43426082688A438260AC
:1014B000C168FF2212039143C1600AA000F0A6F99F
:1014C00010BD0000496E697469616C697A696E6764
:1014D000204C4544732E2E2E0A00000000100240BE
:1014E000000800484C454420496E697469616C6984
:1014F0007A6174696F6E20436F6D706C65746521DD
:101500000A000000704700008307FF22DB0E9A40AC
:101510008907090E994000280BDA0007000F0838E8
:10152000830808489B001818C36993430B43C361A1
:101530007047830804489B001B18186890430843B1
:101540001860704700ED00E000E400E08307FF2230
:10155000DB0E9A408907090E994000280BDA000734
:10156000000F0838830808489B001818C369934384
:101570000B43C3617047830804489B001B1818681D
:10158000904308431860704700ED00E000E400E07D
:101590007047704710B5FFF737FC10BD10B592B01B
:1015A00034216846FEF7F8FD00240F9402200090D5
:1015B0000D9401200E94039010200994049010942F
:1015C0006846FFF757FD07200D900E940F940021F9
:1015D00010940DA8FFF75AFC12B010BD1248016814
:1015E0000122114301604168104A114041600168C5
:1015F0000F4A114001600168012292049143016089
:1016000041683F22120491434160C16A09090901FE
:10161000C162016B074A11400163416B49084900EF
:101620004163002181607047001002400CB8FF0840
:10163000FFFFF6FE2CFEFCFF024801694908490045
:10164000016170470010004010B5044801F078F8BF
:10165000034988700120087010BD00000038014067
:101660001800002010B51AA000F0D0F81E484169FB
:101670000122920411434161816912111143816178
:101680001A4801680F221203914301600168052284
:10169000520311430160016A0902090A0162FFF75E
:1016A0009FFCE1214902FEF723FD1149C86008684B
:1016B0002D221043086001200E49C0060860012158
:1016C0001B20FFF721FF0CA000F0A0F810BD0000C8
:1016D000496E697469616C697A696E672055534116
:1016E0005254312E2E2E0A000010024000040048F1
:1016F0000038014000E100E0555341525431204987
:101700006E697469616C697A6174696F6E20436F88
:101710006D706C657465210A0000000010B5044806
:1017200001F00EF80349C8700120487010BD000098
:101730000048004018000020014840787047000031
:101740001800002010B51DA000F060F82148416984
:101750000122D20411434161C16952101143C16198
:101760001D4801680F221202914301601B48016865
:101770000522520211430160016A11221204114331
:101780000162016A7722520491430162FFF728FC4B
:10179000E1214902FEF7ACFC1149C86008682D221E
:1017A0001043086088040F49086001211D20FFF7DD
:1017B000ABFE0DA000F02AF810BD0000496E697460
:1017C00069616C697A696E67205553415254332EB2
:1017D0002E2E0A00001002400004004800080048B5
:1017E0000048004000E100E0555341525433204985
:1017F0006E697469616C697A6174696F6E20436F98
:101800006D706C657465210A000000000FB410B59E
:1018100003A9044B044A029800F0E8F810BC08BC85
:1018200004B0184721230008400000202021020CAA
:1018300001D010211046020A01D0104608390209D1
:1018400001D01046091F820801D01046891E4208A7
:1018500001D0881E7047081A704702E008C8121F9E
:1018600008C1002AFAD170477047002001E001C189
:10187000121F002AFBD17047F0B51FB486B009983B
:10188000089A030D0021024314D05148514A1818F8
:10189000504305141198012810981AD0281A401C9A
:1018A00000264D4F4D49009601910490002812DA10
:1018B000444211E01198012449A3012801D1109854
:1018C000C1430698119A84600360C26041600BB006
:1018D000F0BD4042E4E70446210500203F4A001CD9
:1018E00051410391029012E0E00707D032463B4697
:1018F00001990098FEF73EFD0191009032463B466B
:1019000010461946FEF736FD06460F466410002CB9
:10191000EAD10498039B0028029A0999089806DAEC
:10192000FEF728FD019B009AFEF724FD05E0FEF777
:1019300089FD019B009AFEF785FD04460E460022B4
:10194000284BFEF717FE03D80020C043014607E0EE
:101950000022254B20463146FEF75AFCFEF7EAFDF1
:10196000102409E0002C0ADB0A220023FEF71FFCEA
:10197000079B30321A55641E02460A43F2D11122E7
:10198000641C079B121B1C19119B012B03D0012304
:1019900008430ED10AE0084304D011201090002023
:1019A000119077E71098151A6D1E0BE0109882427F
:1019B00002DD00236D1C03E0824201DA00236D1E6C
:1019C000002BEED0069811998260C16030C07EE78E
:1019D00001FCFFFF104D0000000014400000F03F2C
:1019E000300000000000F0430000E03FFFB597B07A
:1019F0000646002518E2252877D100242746FD4910
:101A0000049400E00443761C32780120203A904090
:101A10000842F7D130782A280ED0022230780146C9
:101A20003039092916D804990A2359433039401806
:101A30001443761C0490F1E7189802C8049118909A
:101A4000002904DA012040030443484204900220A4
:101A50000443761C30782E2814D104200443707877
:101A6000761C2A2809D11898761C80C8189009E09D
:101A70000A214F43303FC719761C30780146303970
:101A80000929F5D930786C2810D006DC4C281AD0FA
:101A900068280ED06A2817D104E0742813D07A2859
:101AA00012D110E00120400504430CE0012109059A
:101AB00001E0032109050C437178814203D1012023
:101AC00000052418761C761C3078119066280BD0FF
:101AD00013DC58287DD009DC00287BD04528F6D0BF
:101AE0004628F4D047281AD1A5E118E0632835D05C
:101AF000642870D0652812D19DE170286CD008DC74
:101B00006728F1D069287BD06E280DD06F2806D1C8
:101B1000BAE073282ED0752871D0782859D01A9A37
:101B2000199990476D1C7EE16002400F022809D090
:101B300003280DD00428189801680DD00D60001DF1
:101B4000189070E11898EA1701680D604A60F6E78E
:101B5000189801680D80F2E70D70F0E718986A4652
:101B600001781172001D18900020507202A8009098
:101B7000012005E0189802C8189000200091C04389
:101B800061070DD5002101E00199491C0191B9427D
:101B900012DA8142F8DB009A515C0029F4D10BE0A3
:101BA000002101E00199491C01918142FADB019A6F
:101BB0000099895C0029F5D1019904981A9B471A6C
:101BC00021463846199A00F097FA019940194518AC
:101BD0000BE04FE02CE113E04EE000980099007814
:101BE000491C00911A9A199990470198401E01903A
:101BF000401CF2D1214638461A9B199A10E137E071
:101C00000A200021009001916002410F022907D0B3
:101C1000189A01CA1892C2179446032908D00AE0FC
:101C20001898C01DC108C90005C91891944607E05D
:101C300000B2C2179446042902D140B2C1178C46A3
:101C400000226146944506DA0A460021404291414D
:101C50008C462D2102E0210504D52B216A46117303
:101C6000012103E0E10701D02021F7E7029155E0CF
:101C70000A200AE0102008E0102000900021042033
:101C800004430191082703E00820002101910090FE
:101C90006002410F022907D0189A01CA1892002247
:101CA0009446032908D008E01898C01DC108C9004F
:101CB00005C91891944603E080B2042900D1C0B24E
:101CC00000210291210729D51199702906D0009A87
:101CD0001021019B4A401A4305D00EE040216A467C
:101CE0001173012108E06146014306D030216A46A4
:101CF00011731199517302210291009A0821019BDD
:101D00004A401A430AD16146014301D1610705D512
:101D100030216A46117301217F1E029111995829C1
:101D200004D035A10E910DA90D910DE037A1F9E771
:101D30006146019B009AFEF73AFA0E9B8C469B5C2B
:101D40000D9A521E0D92137061460143F0D10D9809
:101D500005A9081A20300190600703D5012000046E
:101D6000844300E001270198874201DD381A00E032
:101D70000020019900904118029809180498401A0F
:101D80000490E00306D421461A9B199A049800F0A7
:101D9000B3F94519002706E003A81A9AC05D1999FE
:101DA00090476D1C7F1C02988742F5DBE0030CD541
:101DB00021461A9B199A049800F09EF9451904E0EF
:101DC0001A9A3020199990476D1C0099481E00906E
:101DD0000029F5DC08E00D980D990078491C0D915B
:101DE0001A9A199990476D1C0199481E0190002973
:101DF000F1DC63E109280100303132333435363704
:101E00003839616263646566000000003031323346
:101E100034353637383941424344454600000000E6
:101E200000F05AF94519761C3078002800D0E2E518
:101E300028461BB0F0BD600700D406271898C01DC7
:101E4000C108C90048680A680831C30FDB07189148
:101E5000190001D09CA108E0210501D59BA104E057
:101E6000E10701D09AA100E09AA1430011985B0814
:101E7000109165280CD006DC452809D046281DD0D5
:101E8000472841D141E0662818D067283CD13CE082
:101E90000021112F01DB112000E0781C019100903E
:101EA00008A911A8FFF7E8FC139905910021119AE0
:101EB00015927F1C12980197009150E00120C007F5
:101EC00003900120019008A9009711A8FFF7D4FC06
:101ED000139A149905920022119B0092129815935F
:101EE000059A0192002901D0104602E0791C4018A1
:101EF0000190381A01D5019804E04042401E00903C
:101F0000781C0190C01B029043E0012F00DA0127EA
:101F10000021112F01DD112000E0384601910090D1
:101F200008A911A8FFF7A8FC13990591119A00219F
:101F3000129815920091019721070CD40599B94286
:101F400001DB019900E00191012904DD159A491E88
:101F5000515C302906D0B84201DA011D05DA0121B1
:101F6000029115E00199491EEDE7002805DC009972
:101F7000411800910199091A03E0019A411C91420C
:101F800000DD01910099401A401C02900120C00719
:101F90000390200706D402990198814202DB0020B9
:101FA000C043029000206946C87707AF012103981B
:101FB0000337C907884224D0022011902B201290A9
:101FC000039800280CDA404203902D20129007E07D
:101FD0000A210398FEF78CF830317F1E0390397088
:101FE0001199481E11900029F2DC03980028EFD1C6
:101FF000791E129808703078202108404530BF1EA5
:10200000387006A8C01BC01D0390109800780028E7
:1020100000D00120019941180298C01709180398AF
:1020200009180498401A401E0490E00306D4214683
:102030001A9B199A049800F05FF8451910980078D7
:10204000002803D01A9A199990476D1CE00324D5F3
:1020500021461A9B199A049800F04EF845191CE085
:102060000098002807DB00990598884203DD159841
:10207000405C199901E0199930201A9A904700980C
:102080006D1C401C00900298401E0290002804D154
:102090001A9A2E20199990476D1C0199481E01909B
:1020A0000029DDDC05E038781A9A7F1C19999047E1
:1020B0006D1C0399481E03900029F4DC21461A9BED
:1020C000199A0498ACE600002D0000002B000000D7
:1020D0002000000000000000F8B5044600251E4660
:1020E0001746880404D405E039462020B0476D1C0B
:1020F000641EF9D52846F8BDFFB50446002581B019
:102100001E46C80301D5302700E02027880404D5E7
:1021100005E038460399B0476D1C641EF9D5284682
:1021200005B0F0BDEFF3108172B60268531C036076
:10213000002900D162B610467047000010B507A014
:10214000FFF764FB00F0BAF9FFF79AF900F03EF9E7
:10215000FEF7B8FA07A0FFF759FB10BD496E697486
:1021600069616C697A696E672043686169722E2EB5
:102170002E0A0000436861697220496E69746961C2
:102180006C697A6174696F6E20436F6D706C6574F1
:1021900065210A0010B525A0FFF738FB00F0F2FA20
:1021A00000F0B2F919E000F0A7FA26A000F09CFABE
:1021B0006F2C31D008DC0A2C0FD00D2C0DD0612CE7
:1021C00025D0642C06D11DE0722C2BD0732C12D09C
:1021D000772C0BD0204600F097FA00F08FFB0446D6
:1021E0007128E0D118A000F07FFA10BD012000F0A6
:1021F00049FB1BA003E0002000F044FB1FA000F0FF
:1022000073FAEAE7012000F02DFB25A0F7E7002094
:1022100000F028FB2AA0F2E733A000F065FAFEF7F1
:10222000B9FADAE700F0AEFA38A0E8E7446562757B
:1022300067204D6F646520656E61626C6564210A7C
:10224000000000000D0A00004C656176696E672091
:102250004465627567204D6F64652E2E2E00000068
:1022600009205374657070656420526F6C6C204354
:102270006C6F636B77697365210D0A0009205374D5
:10228000657070656420526F6C6C20436F756E745E
:1022900065722D436C6F636B77697365210D0A005E
:1022A00009205374657070656420506974636820F8
:1022B000436C6F636B77697365210D0A0000000042
:1022C00009205374657070656420506974636820D8
:1022D000436F756E7465722D436C6F636B776973B2
:1022E00065210D0A000000000920526571756573B3
:1022F00074696E6720646174612066726F6D20423C
:102300004E4F303535210D0A000000007420566113
:102310006C756573205265736574210D0A000000A9
:1023200070B50F4A0023DB43914204D10D4D0446A2
:102330002A68082A01D3184670BD0A48001D845433
:10234000521C2A60082A01D00A2C06D105490648E9
:10235000091DFEF761FA00202860204670BD0000CC
:10236000400000203400002000FE020010B50BA049
:10237000FFF74CFA00F006FA00F038F903E000F03D
:10238000FDF90028FBD000F057F87128F7D108A01C
:1023900000F0AAF90CA000F0A7F910BD456E61622B
:1023A0006C696E672047616D65204D6F64650A003A
:1023B0004C656176696E672047616D65204D6F647D
:1023C000652E2E2E000000000A0D000010B504A09E
:1023D000FFF71CFAFFF7B6F909A0FFF717FA10BDCF
:1023E000496E697469616C697A696E672047616DCD
:1023F00065205061727365722E2E2E0A0000000057
:1024000047616D652050617273657220496E697411
:1024100069616C697A6174696F6E20436F6D706C6D
:10242000657465210A0000000249C8780022CA705C
:102430004A7070471800002010B5FFF7F5FF10BD77
:1024400010B5FEF7E9FCFFF7A9F801210F20FEF710
:10245000F3FAFFF773FE00F003F8002010BD000050
:1024600010B511A0FFF7D2F900F08CF919E000F0D7
:1024700043F90A2C08D00D2C06D0612C0CD0622C0C
:102480000DD0204600F040F900F038FA04467128DB
:10249000EDD100F0EDF810BDFFF77CFE01E0FFF795
:1024A00065FF00F0F5F8EFE74F70656E696E672025
:1024B0004D61696E204D656E750A000010B504A06F
:1024C000FFF7A4F9FEF738FB07A0FFF79FF910BD4F
:1024D000496E697469616C697A696E67204D6F74C1
:1024E0006F72732E2E2E0A004D6F746F7220496E1C
:1024F000697469616C697A6174696F6E20436F6D8C
:10250000706C657465210A0010B50FA000F0ECF83E
:1025100013A000F0E9F813A000F0E6F810A000F016
:10252000E3F81CA000F0E0F80DA000F0DDF825A015
:1025300000F0DAF80AA000F0D7F827A000F0D4F8ED
:1025400007A000F0D1F810BD0A0D09446562756757
:10255000206D6F64652073656C656374656400004D
:102560000A0D00005B775D526F6C6C20636C6F63CB
:102570006B77697365095B735D526F6C6C20636F79
:10258000756E7465722D636C6F636B776973650923
:10259000000000005B645D506974636820636C6FC9
:1025A000636B77697365095B615D5069746368206B
:1025B000636F756E7465722D636C6F636B7769738F
:1025C000650900005B6F5D476574204F7269656E39
:1025D000746174696F6E09005B725D526573657436
:1025E00009095B715D3D71756974000010B509A042
:1025F00000F07AF80DA000F077F80DA000F074F864
:102600000AA000F071F815A000F06EF807A000F025
:102610006BF810BD0A0D0947616D65206D6F64652B
:102620002073656C65637465640000000A0D00002A
:1026300052656164696E6720526F6C6C20616E64D4
:10264000205069746368202850726573732071206C
:10265000746F20717569742900000000466F726DF7
:1026600061743A20526F6C6C2C506974636800007E
:1026700010B503A000F038F804A000F035F810BD44
:102680000A0D476F6F642042796521000A0D000032
:1026900010B506A000F028F808A000F025F80CA05E
:1026A00000F022F80FA000F01FF810BD0A0D09532A
:1026B000454C454354204D4F444500000A0D5B6195
:1026C0005D2009094465627567204D6F64650000EF
:1026D0000A0D5B625D20090947616D65204D6F64DD
:1026E000650000000A0D000010B50146014800F029
:1026F000F7F810BD0048004010B50146014800F051
:10270000D1F810BD0048004010B5044604A0FFF702
:10271000EBFF2046FFF7F0FF08A0FFF7E5FF10BD35
:102720000A0D556E7265636F676E697A6564204342
:1027300068617261637465723A2000000A0D0000DE
:1027400010B5C1698906FCD5818CCCB20449884298
:1027500003D1214603A0FFF759F8204610BD000021
:102760000038014055534152543120526563656928
:102770007665643A20307825580A000010B5FEF7D7
:10278000DBFF10BD10B505A0FFF740F8002000F0FA
:1027900063F8002000F05AF810BD00005265736520
:1027A00074696E670A00000010B50346002210210C
:1027B000014800F021F810BD0004004810B50346A0
:1027C00000222021014800F017F810BD0004004845
:1027D00010B5034601220421014800F00DF810BD98
:1027E0000004004810B5034601220821014800F00A
:1027F00003F810BD00040048F8B5134C0E46074618
:102800001D46002A0DD0E078002803D06069C82159
:10281000401C02E06069C821401EFDF77FFC616139
:102820000CE0E079002803D0E068C821401C02E0F9
:10283000E068C821401EFDF771FCE1602A46314680
:102840003846FEF7D5FAF8BD00000020014988603F
:102850007047000000000020014908617047000037
:102860000000002010B5FFF79FFF0120FFF7A6FF33
:102870000A20FEF703FA0020FFF7A0FF0A20FEF768
:10288000FDF910BD10B5FFF7A3FF0120FFF7AAFF68
:102890000A20FEF7F3F90020FFF7A4FF0A20FEF755
:1028A000EDF910BD70B504460D46E0690006FCD593
:1028B0000348844202D103A0FEF7A8FF258570BD1E
:1028C00000380140555341525431205472616E73A7
:1028D0006D697474696E673A20307825580A000073
:1028E00070B50D460646002403E03046FFF7DAFFD8
:1028F000641C295D0029F8D170BD000070B50B4C37
:1029000000256570E5700AA1104E00E010A1304668
:10291000FFF7E6FF60780028F8D00EA13046FFF7F9
:10292000DFFFE078E570657070BD000018000020E2
:1029300057616974696E6720666F72205553415202
:10294000543320646174612E2E2E00000048004034
:102950002E2E2E000D0A00000000000000000000D6
:1029600001020304060708090100000140000000FD
:10297000900000209004002040050020000000008E
:10298000A029000800000020440000005A18000898
:10299000E429000844000020240900006A18000807
:1029A0000000000000000000000000000000000027
:1029B0000000000000000000000000000000000017
:1029C0000000000000000000000000000000000007
:1029D00000127A000000000000000000000000006B
:0429E00000000000F3
:04000005080000C12E
:00000001FF
