:020000040800F2
:1000000020040020D5000008570A0008550A0008FF
:1000100000000000000000000000000000000000E0
:10002000000000000000000000000000E30A0008DB
:100030000000000000000000E10A0008E50A0008D6
:10004000E7000008E7000008E7000008E7000008F4
:10005000E7000008E7000008E7000008E7000008E4
:10006000E7000008E7000008E7000008E7000008D4
:10007000E7000008E7000008E7000008E7000008C4
:10008000E7000008890B0008E7000008E700000807
:10009000E7000008E7000008E7000008E7000008A4
:1000A000E7000008E7000008E7000008E700000894
:1000B000E7000008B50B0008E7000008E7000008AB
:1000C0000348854600F050F800480047C10C00087E
:1000D000200400200448804704480047FEE7FEE76C
:1000E000FEE7FEE7FEE7FEE72D0B0008C100000873
:1000F00030B50B46014600202022012409E00D46C0
:10010000D5409D4205D31D469540491B2546954047
:1001100040191546521E002DF1DC30BDD2B201E06F
:100120000270401C491EFBD270470022F6E710B552
:1001300013460A4604461946FFF7F0FF204610BD55
:10014000410040020122400AD205090E80187F2991
:1001500001DA00207047962903DC9622511AC84024
:100160007047963988407047064C0125064E05E0D9
:10017000E36807CC2B430C3C98471034B442F7D3C8
:10018000FFF7A2FF200F0008400F0008F0B59E46C1
:1001900094460E4605460923DB0628482849294F80
:1001A000294A2A4C87B09D4202D16169C00125E0ED
:1001B000854208D161690120800401436161616960
:1001C000014005910AE08D4208D161690120C00417
:1001D000014361616169014005910AE0BD4208D1B6
:1001E0006169012000050143616161690140059178
:1001F0000AE0954208D1616901204005014361612F
:1002000061690140059106E01148854203D16169A9
:1002100001208005F2E760460190704602900C983C
:10022000039000966946284600F022F800223146E5
:10023000284600F0C9F807B0F0BD000000040048EF
:1002400000080048000C0048001000480010024060
:100250000014004831B500F0BDF8009C0546601C54
:1002600000D0641C00F0B6F8401BA042FAD338BDA1
:10027000F8B5002393E0224601249C40A446224086
:100280007ED04C68022C01D0122C0CD1DC08A400CA
:1002900027183C6A5D07ED0E0F26AE40B4430E6989
:1002A000AE4026433E6205685E000324B4400F79E9
:1002B000A543BF07BF0FB7402F4307604D68012D0F
:1002C00005D0022D03D0112D01D0122D0ED185683D
:1002D000CF68A543B7402F43876047686546AF4363
:1002E0000D79ED06ED0F9D403D434560C568A54382
:1002F0008C68B4402C43C4604C68E4004ED52B4C51
:10030000A56901263543A561A4699D083440009480
:10031000274CAD002F19BC689D072E0F0F25B54047
:10032000AC430925ED06A84201D1002514E0214D7A
:10033000A84201D101250FE01F4DA84201D102259D
:100340000AE01E4DA84201D1032505E01C4DA8423C
:1003500001D1042500E00525B5402543BD60194CB9
:1003600025684E689543F60300D5154325606568FA
:100370004E689543B60300D515436560A56800E057
:100380000CE04E689543F60200D51543A560E5687C
:100390004E689543B60200D51543E5605B1C0A68BC
:1003A0001446DA4000D066E7F8BD000000100240B5
:1003B000000001400004004800080048000C00480C
:1003C0000010004800040140002A01D081617047FC
:1003D00081627047014800687047000014000020E7
:1003E00002480168491C01607047000014000020A9
:1003F00010B506480168102211430160002000F08A
:1004000007F800F017F8002010BD0000002002409F
:1004100010B5044600F0D0F87D21C900FFF768FE52
:1004200000F000FB00222146501E00F017F80020CB
:1004300010BD000008B5084881690122114381619F
:10044000816911400091C26901040A43C261C06917
:100450000840009008BD00000010024010B500F0F8
:100460001DFB10BDF8B505464E480E460068C00796
:10047000C00FB0420AD24B480168490849003143D5
:1004800001600068C007C00FB04270D12878464CA8
:10049000800705D56068F0218843A968084360603B
:1004A0002878C00753D06868012817D0022818D0D0
:1004B000032819D021688907002958DA616889085A
:1004C000890001436160FFF785FF696807460129DC
:1004D00013D002291DD0032927D034E021688903D5
:1004E000EAE721688901E7E7616BC903E4E7FFF701
:1004F00071FFC11B2D48814223D860680007800F1F
:100500000128F4D123E0FFF765FFC11B2748814292
:1005100017D860680007800F0228F4D117E0FFF7B2
:1005200059FFC11B214881420BD860680007800F2A
:100530000328F4D10BE0FFF74DFFC11B1B4881429C
:1005400001D90320F8BD60680007800FF3D115487A
:100550000168C907C90FB1420BD9016849084900B0
:10056000314301600068C007C00FB04201D00120D4
:10057000F8BD2878400706D560680721090288433E
:10058000E9680843606000F01DF86168084A0906E0
:10059000090F515CC840074908600020FFF738FF89
:1005A0000020F8BD00200240001002408813000027
:1005B0006A0E00081800002001480068704700001B
:1005C0001800002030B516A30FCB89B06C460FC4BD
:1005D00017A30FCB0FC41A494A680C2014460440D5
:1005E0001848042C05D0184B082C04D00C2C00D132
:1005F000184609B030BD9402240F6D462C5DC96ABF
:1006000004AD0907090FD203695C920F022A02D0D8
:10061000032A00D11846FFF76BFD6043E9E70000AD
:1006200002030405060708090A0B0C0D0E0F101033
:100630000102030405060708090A0B0C0D0E0F1032
:100640000010024000127A00006CDC02FEB5044685
:100650000078F04EF04DC00748D068680007800F62
:1006600001281FD068680007800F022804D168683D
:10067000C003800F022815D06168012919D001201C
:100680008004002901D0052917D02968B1432960C9
:10069000296881432960606800281BD0FFF79AFE13
:1006A000074613E02868800320D56068002876D0CC
:1006B0001CE0286830432860EDE729680143296081
:1006C000F7E7FFF787FEC01B642869D82868800316
:1006D000F7D50BE0FFF77EFE074604E0FFF77AFE52
:1006E000C01B6428F1D828688003F7D420788007DD
:1006F0003ED568680007800F14D068680007800F37
:10070000022804D16868C003800F01280AD0E0687D
:10071000002828681DD0012108432860FFF75AFEF1
:1007200007460BE0286880070BD5E068012836D122
:1007300007E0FFF74FFEC01B0228C6D828688007D5
:10074000F7D52868F82188432169C9000843286043
:100750000EE0400840002860FFF73CFE074604E03A
:10076000FFF738FEC01B0228AFD828688007F7D4EF
:100770002078000724D5E0690028686A11D001219B
:1007800008436862FFF726FE074604E0FFF722FEF3
:10079000C01B022899D8686A8007F7D510E036E1B7
:1007A000D1E0400840006862FFF714FE074604E00D
:1007B000FFF710FEC01B022887D8686A8007F7D4AD
:1007C000207804274007002861DA00200190E869BA
:1007D000C00008D4E969B8060143E961E96901404C
:1007E0000120009101908D480168C90511D401686C
:1007F000821511430160FFF7EDFD009005E0FFF762
:10080000E9FD0099401A642897D884480068C0051B
:10081000F5D5A06801280AD0002801D0052811D0FC
:10082000286A400840002862286AB84302E0286A23
:10083000012108432862A068002812D0FFF7CAFDF2
:1008400000900AE0286A38432862F0E7FFF7C2FD0B
:100850000099411A7248814275D8286A8007F5D5F7
:100860000DE0FFF7B7FD009006E0FFF7B3FD00993C
:10087000411A6B48814266D8286A8007F5D40198EE
:10088000002804D0E969012000078143E96120784C
:10089000C00635D5606901280CD0401D686B24D096
:1008A00038436863686B400840006863FFF792FD57
:1008B000074622E0686B38436863686B0121084390
:1008C0006863FFF787FD074604E0FFF783FDC01B61
:1008D000022838D8686B8007F7D5686BF821884301
:1008E000A169C900084368630AE0B8436863F4E794
:1008F000FFF770FDC01B022825D8686B8007F7D46E
:100900002078800637D568680007800F032813D049
:1009100068680007800F022804D16868C003800F50
:10092000032809D0206A0028686B16D0304368631A
:10093000FFF750FD06460CE0686BC0031BD5206A2C
:10094000012864D117E05BE0FFF744FD801B02281B
:1009500056D8686BC003F7D50DE0B0436863FFF766
:1009600039FD064604E0FFF735FD801B022847D815
:10097000686BC003F7D4606A002846D0696809072D
:10098000890F022943D0012636060228286805D09F
:10099000B0432860FFF71EFD044633E0B0432860F3
:1009A000FFF718FD074604E0FFF714FDC01B0228FF
:1009B00026D828688001F7D4E86A216B0009000175
:1009C0000843E862A16AE06A084369687B22D203AF
:1009D000914308436860286830432860FFF7FAFCB9
:1009E000044604E0FFF7F6FC001B022808D828683C
:1009F0008001F7D509E0FFF7EDFC001B022801D9C3
:100A00000320FEBD28688001F5D40020FEBD012032
:100A1000FEBD000000000100001002400070004018
:100A200088130000094910B5401E884201D90120F1
:100A300010BD074C60610321081F00F02FF8002053
:100A4000A06107202061002010BD0000FFFFFF0013
:100A500000E000E0FEE770478307FF22DB0E9A40CC
:100A60008907090E994000280BDA0007000F0838A3
:100A7000830808489B001818C36993430B43C3615C
:100A80007047830804489B001B181868904308436C
:100A90001860704700ED00E000E400E08307FF22EB
:100AA000DB0E9A408907090E994000280BDA0007EF
:100AB000000F0838830808489B001818C36993433F
:100AC0000B43C3617047830804489B001B181868D8
:100AD000904308431860704700ED00E000E400E038
:100AE0007047704710B5FFF77BFC10BD10B592B092
:100AF00034216846FFF719FB00240F940220009070
:100B00000D9401200E9403901020099404901094E9
:100B10006846FFF79BFD07200D900E940F9400216F
:100B200010940DA8FFF79EFC12B010BD124801688A
:100B30000122114301604168104A1140416001687F
:100B40000F4A114001600168012292049143016043
:100B500041683F22120491434160C16A09090901B9
:100B6000C162016B074A11400163416B49084900AA
:100B70004163002181607047001002400CB8FF08FB
:100B8000FFFFF6FE2CFEFCFF10B50748C068FFF71C
:100B9000D7FA02464021054800F03EF904480169B1
:100BA00049084900016110BD000000200004004810
:100BB0000010004000B500F023F902490870012040
:100BC000487000BD0000002010B51748416901229F
:100BD000D20411434161C16952101143C1611348EC
:100BE00001680522520211430160016A11221204B8
:100BF00011430162016A7722520491430162FFF7B7
:100C0000DBFC4B21C901FFF773FA0949C86008688A
:100C10002D221043086088040649086001211D2028
:100C2000FFF71AFF10BD0000001002400008004846
:100C30000048004000E100E002E008C8121F08C1BF
:100C4000002AFAD170477047002001E001C1121F4D
:100C5000002AFBD17047000000B50C48002101704C
:100C60004170C18001810AA000F0F4F8094800F049
:100C7000F1F807A000F0EEF8074800F0EBF804A048
:100C800000F0E8F805A000F0E5F800BD0000002045
:100C90000A0D00007C0E0008CC0E00085B725D524D
:100CA0006573657409095B53706163655D53746FA7
:100CB0007009095B456E7465725D3D457869740025
:100CC00008B5FFF795FBFFF711FF00200346FF2152
:100CD00000900122E1310448FFF758FAFFF774FF52
:100CE00000F004F8FCE700000004004800B500F044
:100CF00043F80E4B58780028FCD00020D88018818B
:100D0000187800F09DF818780D2803D0312805D008
:100D1000322809D006A000F09DF800BD08A000F020
:100D200099F8FFF799FF00BD0BA0F4E70000002041
:100D30000943656E746572696E672E2E2E00000081
:100D4000094465627567206D6F64652073656C6525
:100D500063746564000000000955534552204D4FEF
:100D60004445204E4F5420494D504C454D454E541E
:100D7000454420594554210000B50BA000F06AF805
:100D80000DA000F067F811A000F064F813A000F0C7
:100D900061F819A000F05EF8184800214170017058
:100DA0000121017100BD00000A0D0953454C454366
:100DB00054204D4F444500000A0D31200909444597
:100DC000425547204D6F6465000000000A0D322037
:100DD000090955534552204D6F6465000A0D5B416A
:100DE0004E59204B45595D200943656E746572204C
:100DF00053656174000000000A0D0000000000202F
:100E00000448C1698906FCD5024820308088C0B2F8
:100E1000704700000048004070B516460C46054675
:100E20000122FFF7D1FA3046FFF714FA00222146DB
:100E30002846FFF7C9FA3046FFF70CFA70BD0000EC
:100E40000349CA691206FCD501492031088170475F
:100E50000048004010B50446002302E0FFF7F0FF11
:100E60005B1CE05C0028F9D110BD00000000000010
:100E70000000010203040607080900005B775D52C9
:100E80006F6C6C20636C6F636B77697365095B7360
:100E90005D526F6C6C20636F756E7465722D636C40
:100EA0006F636B77697365095B2D5D44656372657C
:100EB00061736520726F6C6C095B2B5D496E6372A8
:100EC0006561736520726F6C6C3B00005B645D5004
:100ED0006974636820636C6F636B77697365095B22
:100EE000615D506974636820636F75746E65722DFF
:100EF000636C6F636B77697365095B3C5D44656325
:100F00007265617365207069746368095B3E5D4951
:100F10006E637265617365207069746368000000B8
:100F2000400F0008000000201C000000380C0008E2
:100F30005C0F00081C00002004040000480C00089E
:100F4000000000000100000000000000000020413F
:0C0F5000000020410000000000127A00A8
:04000005080000C12E
:00000001FF
