:020000040800F2
:1000000068090020D5000008E1190008A1190008BE
:1000100000000000000000000000000000000000E0
:100020000000000000000000000000006F1A00083F
:1000300000000000000000006D1A0008711A00089E
:10004000E7000008E7000008E7000008E7000008F4
:10005000E7000008E7000008E7000008E7000008E4
:10006000E7000008E7000008E7000008E7000008D4
:10007000E7000008E7000008E7000008E7000008C4
:10008000E7000008151B0008E7000008E70000086B
:10009000E7000008E7000008E7000008E7000008A4
:1000A000E7000008E7000008E7000008251B00083B
:1000B000E7000008D11B0008E7000008E70000087F
:1000C0000348854600F05EFB004800479928000879
:1000D000680900200448804704480047FEE7FEE71F
:1000E000FEE7FEE7FEE7FEE7B91A0008C1000008D8
:1000F00030B50B46014600202022012409E00D46C0
:10010000D5409D4205D31D469540491B2546954047
:1001100040191546521E002DF1DC30BD70B500248B
:100120002546002801DA01244042002901DA012590
:100130004942FFF7DDFFAC4200D04042002C00D026
:10014000494270BD10B5202A04DB0846203AD04051
:10015000002110BD0B46D340D0402024A21A91406C
:100160000843194610BDD2B201E00270401C491E7E
:10017000FBD270470022F6E710B513460A46044644
:100180001946FFF7F0FF204610BDF8B502464A4079
:10019000D40F42004B0052085B089A4202D202463A
:1001A000084611464A0023D0C30D4A00DDB2120EA4
:1001B000AD1A202D35DA49020126490AF6058A19B9
:1001C000002C00D0524220214F1B1146B9402A4139
:1001D0001018C20D9A4221D0002C17D0012D08DC36
:1001E000DA05801AD20F8019D207DBB200F0CBF803
:1001F000F8BDDA05801A012340001B06C0188018DC
:100200005A428018CA0F1043490007E04908C20744
:100210001143DA05801A80194008801800F0ABF805
:10022000F8BD61000122511A001BF7E70122D20735
:100230005140AAE70122D2075040A6E7024670B516
:100240004A40D30FDB0740002DD04A002AD0010ED0
:10025000140E000212020919400A520A8418E5011C
:1002600004465443000A120A2E045043A4194219AA
:10027000200CC543AA18120C0125AD03521C5219BB
:1002800012047F39240400D0521C104301D44000D2
:10029000491EC2B20C06C0092018401C4008802A22
:1002A00002D003E0002070BD40084000002900DAC1
:1002B0000020184370BD420005D04200120E524289
:1002C0008A4201DB00207047C90508187047C21731
:1002D000C10F504010B54018CA079623002100F006
:1002E00052F810BDC20F410040020123400ADB0555
:1002F000D207090EC0187F2901DA0020704796291D
:1003000003DC9623591AC84001E096398840002A38
:10031000F4D040427047F0B51FB40646002082B0CA
:1003200005464024019100901BE0019922460F46AA
:100330003046FFF707FF049A059B801A994110D3B6
:1003400010461946224600F02FFA361A8F410197BF
:10035000224601200021009F00F026FA38184D4166
:1003600000902046641E0028DFDC019B009829468F
:10037000324607B0F0BD002904DA401C490001D123
:1003800040084000704770B40024050C05D11024CB
:10039000000402D1002921D01124050E01D1000250
:1003A0000834050F01D10001241D850F01D1800003
:1003B000A41C002801DB4000641C002908D0202573
:1003C0002E1B0D46F540A14000D0012129430843D2
:1003D00001061B1B000ADB1D02D5002070BC704704
:1003E000DB05181880180029F8DA401C4900F5D1FF
:1003F00070BC400840007047F0B5074608465840BA
:1004000087B0C00F049048000E46590040084908C4
:10041000BC1A884105D2384631461E4617460B465F
:1004200002465800400810434CD0300D0390400560
:100430005900400D490D0590401A0290402872DA8B
:1004400018030121000B090508430190049800924C
:10045000002805D001995242002088410092019065
:10046000029840210A1A0199009800F09DF905466A
:100470000C466B4607CB00F0A7F9C0197141039AEF
:100480000E0D0023D71756401A467A40164344D023
:10049000049A002A2DD0029A012A039A15DC12052B
:1004A000C01A914101263605001C7141D20F059EEC
:1004B000D2070093019202962A46234600F0A4F93F
:1004C00007B0F0BD38463146FAE71605224A0F4616
:1004D000B218C01AB74101210905001C4F4100188C
:1004E0007F41114618187941E20F10436D1964419C
:1004F00013E0E2076D0815436408C2071443039A2A
:1005000001261205C01A91413605001C7141CE0723
:10051000400830434908C01851412A46234600F09C
:1005200066F9CDE7FFE7049801224000C117121ACF
:1005300000238B4104983146C417381AA141EEE7D5
:1005400030B40124E407634030BC55E730B40124E3
:10055000E407614030BC4FE70000E0FFF0B51FB496
:1005600088B00B990998002448400999C00F4900A8
:1005700049080991C0070B990090490049080B915F
:1005800009990898A64608431CD00B990A98084375
:1005900018D0099801244000420D4800410D0998E7
:1005A00024050003000B204309900B980003000B67
:1005B00020430B9050181C4940180022019014460B
:1005C000104605E0002001460DB0F0BD032801DA19
:1005D000034600E003239C46C11A0AAE0AE05F000E
:1005E00008ADED5B4F00F75B7D430027AA187C4107
:1005F000491C5B1E6145F2DD410004AB5A522104E7
:10060000120C0A43240C401C0828DFDB01980290DE
:100610000099704601910090059B049A07990698ED
:1006200000F0F2F8D0E700000DFCFFFFF0B50C463B
:100630005C4085B0E40FE40703944C000026640896
:1006400059009446490802460296224321D0624648
:100650000A431ED06200570D4A000E032303550DB6
:10066000012402462C492405781B1B0B360B40182D
:1006700023432643614600901C46501AB44103D3DD
:100680000098401C009002E0921800985B410028FE
:1006900003DA0020014605B0F0BD00200121090564
:1006A0000746864611E064461D46141BB54106D335
:1006B0006546521BB341744607430C43A646CD071B
:1006C00040084908284392185B4105460D43EAD18A
:1006D0001046184313D060461946504071400843F5
:1006E00006D06046101AB34106D20122002306E06C
:1006F00000220123DB0702E00122D24353100098BD
:1007000074460105381C6141029C039D0019694132
:1007100000F06DF8BFE70000FD0300004A00090388
:100720000123090B1B0519430A4B10B5520D9A42C0
:1007300002DA0020014610BD064B34339A4203DC36
:100740009A1AFFF7FFFC10BD034BD21800F02CF8EB
:1007500010BD0000FF030000CDFBFFFF10B5002916
:1007600004DB0124E40740428C412146002B04DBDA
:100770001C460123DB075242A341994200D190421B
:1007800010BD0000064C0125064E05E0E36807CCCD
:100790002B430C3C98471034B442F7D3FFF794FC3A
:1007A000E82D0008082E000810B5202A04DB0146B9
:1007B000203A9140002010BD914020239C1A03460E
:1007C000E3401943904010BD10B5202A06DBCB173B
:1007D0000846203A1041C1170B4306E00B4613416F
:1007E000D0402024A21A91400843194610BD10B5EC
:1007F000002B08DA0024401C614192185B411A4327
:1008000001D14008400010BDF0B51FB482B00546CC
:100810000C0003D0084601F03DFA02E001F03AFA7C
:1008200020300246009021462846FFF7BDFF049B7A
:10083000059A04460F4618431143084314D018463E
:1008400010431BD0009840210A1A18460599FFF75B
:1008500079FC05460E46009A05990498FFF7A4FF17
:10086000084305D0012004E02046394607B0F0BD1A
:100870000020C11705430E432C43374300990E98BF
:100880006305401A7905E40A00220C43FD0A0A3088
:1008900002D500200146E9E70105101969410C9CC9
:1008A0000D9D00196941FFF7A2FFDFE710B501F0C8
:1008B000CBFF10BD70B5FAA002F006F801F040F9C8
:1008C000FE4CAA21204602F0EBF80121204602F05E
:1008D000E7F83621204602F0E3F80121204602F035
:1008E000DFF8642000F05CFC01F062F9002803D11D
:1008F00002F008F80F28E4D1AA21204602F0D0F82F
:100900000121204602F0CCF84121204602F0C8F82F
:100910000121204602F0C4F8642000F041FC01F0FF
:1009200047F90028E8D0E6A001F0CEFF01F0EAFF89
:100930000325AA21204602F0B3F80021204602F048
:10094000AFF80721204602F0ABF80121204602F063
:10095000A7F80021204602F0A3F8642000F020FC54
:100960006D1E03D001F02CF90028E2D0AA21204608
:1009700002F096F80121204602F092F83E2120462E
:1009800002F08EF80121204602F08AF8642000F07F
:1009900007FC01F00DF90028E8D0D1A001F094FF88
:1009A00001F0B0FF002820D0D6A001F08DFF032574
:1009B000AA21204602F074F80021204602F070F8C7
:1009C0003E21204602F06CF80121204602F068F832
:1009D0000021204602F064F8642000F0E1FB6D1E67
:1009E00003D001F0EDF80028E2D00325AA2120462B
:1009F00002F056F80021204602F052F83D21204630
:100A000002F04EF80121204602F04AF8002120466B
:100A100002F046F8642000F0C3FB6D1E03D001F025
:100A2000CFF80028E2D00325AA21204602F038F8AA
:100A30000021204602F034F84121204602F030F82F
:100A40000121204602F02CF82421204602F028F84B
:100A5000642000F0A5FB6D1E03D001F0B1F8002862
:100A6000E2D00325AA21204602F01AF800212046F0
:100A700002F016F84221204602F012F80121204629
:100A800002F00EF80421204602F00AF8642000F07B
:100A900087FB6D1E03D001F093F80028E2D0AA2155
:100AA000204601F0FDFF0121204601F0F9FF3D2124
:100AB000204601F0F5FF0121204601F0F1FF6420FE
:100AC00000F06EFB01F074F80028E8D095A001F06A
:100AD000FBFE01F017FF0C2820D09CA001F0F4FED3
:100AE0000325AA21204601F0DBFF0021204601F06A
:100AF000D7FF3D21204601F0D3FF0121204601F020
:100B0000CFFF0C21204601F0CBFF642000F048FB12
:100B10006D1E03D001F054F80028E2D0AA2120462F
:100B200001F0BEFF0121204601F0BAFF3B21204623
:100B300001F0B6FF0121204601F0B2FF642000F071
:100B40002FFB01F035F80028E8D089A001F0BCFEA9
:100B500001F0D8FE4007C017401C20D18EA001F044
:100B6000B3FE0325AA21204601F09AFF002120466A
:100B700001F096FF3B21204601F092FF0121204623
:100B800001F08EFF0021204601F08AFF642000F072
:100B900007FB6D1E03D001F013F80028E2D0874850
:100BA00001F092FE86A001F08FFEAA21204601F0FE
:100BB00077FF0121204601F073FF3521204601F027
:100BC0006FFF0121204601F06BFF642000F0E8FA7E
:100BD00000F0EEFF0028E8D001F094FEC04380064C
:100BE000800FE2D17EA001F06FFE864801F06CFE1E
:100BF00085A001F069FEAA21204601F051FF0121E4
:100C0000204601F04DFF3521204601F049FF01212A
:100C1000204601F045FF642000F0C2FA00F0C8FF52
:100C20000028E8D001F06EFEC0430007800FE2D13B
:100C30007EA001F049FE874801F046FE86A001F043
:100C400043FEAA21204601F02BFF0121204601F09E
:100C500027FF3521204601F023FF0121204601F026
:100C60001FFF642000F09CFA00F0A2FF0028E8D0EB
:100C700001F048FEC0438007E3D180A001F024FECC
:100C800088A001F021FEAA21204601F009FF0121E0
:100C9000204601F005FF3521204601F001FF17E154
:100CA000496E697469616C697A696E6720424E4F5A
:100CB0003035352E2E2E0D0A000000000038014080
:100CC00044656661756C74206178697320616C722B
:100CD000656164792064656661756C742E0D0A0027
:100CE000506F776572206D6F646520616C7265610D
:100CF00064792073657420746F204E4F524D414CBF
:100D00002E0D0A0053657474696E6720746F204E4F
:100D10004F524D414C20706F776572206D6F646546
:100D20002E0D0A004F7065726174696F6E206D6FD1
:100D3000646520616C7265616479207365742074E8
:100D40006F204E444F462E0D0A0000005365747408
:100D5000696E6720746F204E444F46206F70657235
:100D60006174696F6E206D6F64652E0D0A0000005E
:100D70004F757470757420756E69747320616C7230
:100D8000656164792073657420746F20444547520F
:100D90004545532E0D0A000053657474696E672033
:100DA000746F2044454752454553206F75747075E4
:100DB0007420756E6974732E0D0A0000902D000862
:100DC0004779726F73636F70652069732063616C1C
:100DD0006962726174696E672E2E2E0D0A00000022
:100DE0004779726F73636F70652043616C696272DB
:100DF0006174696F6E20636F6D706C657465210D31
:100E00000A000000E42C0008416363656C65726FA2
:100E10006D657465722069732063616C69627261CB
:100E200074696E672E2E2E0D0A0000004163636503
:100E30006C65726F6D657465722043616C69627276
:100E40006174696F6E20636F6D706C657465210DE0
:100E50000A000000682C00084D61676E65746F6DB4
:100E6000657465722069732063616C696272617474
:100E7000696E672E2E2E0D0A000000004D61676E10
:100E800065746F6D657465722043616C696272612F
:100E900074696F6E20636F6D706C657465210D0AE7
:100EA00000000000566572696679696E6720737983
:100EB0007374656D2063616C6962726174696F6ED1
:100EC000207374617475732E2E2E0D0A00000000BD
:100ED0000121204601F0E4FD642000F061F900F0FA
:100EE00067FE002800D1CEE601F00CFDC0430006ED
:100EF000800F04D001F006FDC0438006F3D103A0AB
:100F000001F0E2FC09A001F0DFFC70BD53797374BD
:100F1000656D2043616C6962726174696F6E2063F4
:100F20006F6D706C657465210D0A0000424E4F3084
:100F3000353520496E697469616C697A6174696FCD
:100F40006E20616E642043616C6962726174696FC6
:100F50006E20436F6D706C657465210A000000009F
:100F600010B501F093FC10BD10B50C4CAA21204621
:100F700001F096FD0121204601F092FD1A21204644
:100F800001F08EFD0621204601F08AFD0A2000F0C6
:100F900007F900F00DFE0028E8D010BD0038014030
:100FA00070B52F4948690122520410434861092055
:100FB000C0060368032212029343036003681343CD
:100FC000036088694A1510438861264800228260C0
:100FD000C26002618262C36844142343C360C36871
:100FE0001824A343C3600369440523430361032614
:100FF0004661836A10252B4383624D6901231D439B
:101000004D61184D184940350D61184D4D61CB604B
:101010008A608A682D256D012A438A608A681A438E
:101020008A608168C90703D0816802221143816008
:101030008168C907FCD1C16849084900C16081685D
:101040002143816081680029FCDBC1683143C160B4
:10105000816819438160816804221143816070BDF9
:101060000010024000240140000002400000002067
:1010700038B50024234601220C210648009400F0D4
:101080000DF805210023012289020348009400F095
:1010900005F838BD0004004800080048F0B5394D97
:1010A0000F4606462978384C012087B09E46944664
:1010B00000290BD10921C9068E4207D1626941047A
:1010C0000A43626162690A400592287069780029C2
:1010D0000AD12E498E4207D1626909020A43626130
:1010E00062690A4005926870A97800290AD12849E6
:1010F0008E4207D1626909020A43626162690A404D
:101100000592A870E97800290BD122498E4208D1B6
:101110006269012109050A43626162690A40059218
:10112000E87018492B791C4A4979002B0BD11B4BCD
:101130009E4208D1626959020A43626162690A40AB
:10114000059228710CE000290AD1964208D1626903
:10115000012189050A43626162690A40059268714A
:1011600060460190704602900C9803900097694683
:10117000304600F023F800223946304600F0CAF825
:1011800007B0F0BD0200002000100240000400483B
:1011900000080048000C00480014004800100048F7
:1011A00031B500F0BDF8009C0546601C00D0641C01
:1011B00000F0B6F8401BA042FAD338BDF8B50023C2
:1011C00093E0224601249C40A44622407ED04C68F5
:1011D000022C01D0122C0CD1DC08A40027183C6A88
:1011E0005D07ED0E0F26AE40B4430E69AE402643B8
:1011F0003E6205685E000324B4400F79A543BF0733
:10120000BF0FB7402F4307604D68012D05D0022D59
:1012100003D0112D01D0122D0ED18568CF68A543C2
:10122000B7402F43876047686546AF430D79ED06A9
:10123000ED0F9D403D434560C568A5438C68B440B3
:101240002C43C4604C68E4004ED52B4CA5690126A4
:101250003543A561A4699D0834400094274CAD0036
:101260002F19BC689D072E0F0F25B540AC430925EB
:10127000ED06A84201D1002514E0214DA84201D17C
:1012800001250FE01F4DA84201D102250AE01E4DA5
:10129000A84201D1032505E01C4DA84201D1042537
:1012A00000E00525B5402543BD60194C25684E6812
:1012B0009543F60300D51543256065684E68954350
:1012C000B60300D515436560A56800E00CE04E68E4
:1012D0009543F60200D51543A560E5684E68954331
:1012E000B60200D51543E5605B1C0A681446DA4077
:1012F00000D066E7F8BD0000001002400000014089
:101300000004004800080048000C00480010004895
:1013100000040140002A01D081617047816270475A
:10132000014800687047000064000020024801681E
:10133000491C0160704700006400002010B5064899
:101340000168102211430160002000F007F800F04E
:1013500017F8002010BD00000020024010B5044620
:1013600000F0D0F87D21C900FEF7C2FE00F000FBBE
:1013700000222146501E00F017F8002010BD00008A
:1013800008B50848816901221143816181691140D2
:101390000091C26901040A43C261C069084000901B
:1013A00008BD00000010024010B500F03DFB10BD6C
:1013B000F8B505464E480E460068C007C00FB0425B
:1013C0000AD24B480168490849003143016000686E
:1013D000C007C00FB04270D12878464C800705D5B1
:1013E0006068F0218843A968084360602878C007D6
:1013F00053D06868012817D0022818D0032819D0C4
:1014000021688907002958DA616889088900014341
:101410006160FFF785FF69680746012913D002293B
:101420001DD0032927D034E021688903EAE7216829
:101430008901E7E7616BC903E4E7FFF771FFC11BAF
:101440002D48814223D860680007800F0128F4D11D
:1014500023E0FFF765FFC11B2748814217D860686A
:101460000007800F0228F4D117E0FFF759FFC11BD6
:10147000214881420BD860680007800F0328F4D10F
:101480000BE0FFF74DFFC11B1B48814201D9032030
:10149000F8BD60680007800FF3D115480168C907DF
:1014A000C90FB1420BD901684908490031430160B5
:1014B0000068C007C00FB04201D00120F8BD2878F5
:1014C000400706D56068072109028843E968084398
:1014D000606000F01DF86168084A0906090F515C58
:1014E000C840074908600020FFF738FF0020F8BD1A
:1014F000002002400010024088130000402C000829
:101500006800002001480068704700006800002063
:1015100030B516A30FCB89B06C460FC417A30FCB01
:101520000FC41A494A680C20144604401848042C79
:1015300005D0184B082C04D00C2C00D1184609B04B
:1015400030BD9402240F6D462C5DC96A04AD0907B5
:10155000090FD203695C920F022A02D0032A00D13C
:101560001846FEF7C5FD6043E9E7000002030405E5
:10157000060708090A0B0C0D0E0F101001020304D8
:1015800005060708090A0B0C0D0E0F10001002408B
:1015900000127A00006CDC02FEB504460078F04EC2
:1015A000F04DC00748D068680007800F01281FD0A1
:1015B00068680007800F022804D16868C003800FA4
:1015C000022815D06168012919D001208004002962
:1015D00001D0052917D02968B143296029688143C2
:1015E0002960606800281BD0FFF79AFE074613E0C9
:1015F0002868800320D56068002876D01CE0286821
:1016000030432860EDE7296801432960F7E7FFF7D9
:1016100087FEC01B642869D828688003F7D50BE0D3
:10162000FFF77EFE074604E0FFF77AFEC01B642842
:10163000F1D828688003F7D4207880073ED5686801
:101640000007800F14D068680007800F022804D1BB
:101650006868C003800F01280AD0E0680028286865
:101660001DD0012108432860FFF75AFE07460BE012
:10167000286880070BD5E068012836D107E0FFF71E
:101680004FFEC01B0228C6D828688007F7D52868F7
:10169000F82188432169C900084328600EE040080A
:1016A00040002860FFF73CFE074604E0FFF738FEE5
:1016B000C01B0228AFD828688007F7D4207800071D
:1016C00024D5E0690028686A11D0012108436862C6
:1016D000FFF726FE074604E0FFF722FEC01B0228A4
:1016E00099D8686A8007F7D510E036E1D1E0400864
:1016F00040006862FFF714FE074604E0FFF710FEA3
:10170000C01B022887D8686A8007F7D4207804278E
:101710004007002861DA00200190E869C00008D481
:10172000E969B8060143E961E969014001200091D6
:1017300001908D480168C90511D4016882151143D3
:101740000160FFF7EDFD009005E0FFF7E9FD00996E
:10175000401A642897D884480068C005F5D5A06869
:1017600001280AD0002801D0052811D0286A400895
:1017700040002862286AB84302E0286A0121084331
:101780002862A068002812D0FFF7CAFD00900AE086
:10179000286A38432862F0E7FFF7C2FD0099411A32
:1017A0007248814275D8286A8007F5D50DE0FFF7A9
:1017B000B7FD009006E0FFF7B3FD0099411A6B48B2
:1017C000814266D8286A8007F5D40198002804D0A1
:1017D000E969012000078143E9612078C00635D519
:1017E000606901280CD0401D686B24D038436863C1
:1017F000686B400840006863FFF792FD074622E0EF
:10180000686B38436863686B012108436863FFF7BE
:1018100087FD074604E0FFF783FDC01B022838D888
:10182000686B8007F7D5686BF8218843A169C90008
:10183000084368630AE0B8436863F4E7FFF770FDA4
:10184000C01B022825D8686B8007F7D42078800653
:1018500037D568680007800F032813D06868000731
:10186000800F022804D16868C003800F032809D0C4
:10187000206A0028686B16D030436863FFF750FD7C
:1018800006460CE0686BC0031BD5206A012864D1B2
:1018900017E05BE0FFF744FD801B022856D8686B19
:1018A000C003F7D50DE0B0436863FFF739FD064686
:1018B00004E0FFF735FD801B022847D8686BC003A2
:1018C000F7D4606A002846D069680907890F0229A1
:1018D00043D0012636060228286805D0B043286088
:1018E000FFF71EFD044633E0B0432860FFF718FD04
:1018F000074604E0FFF714FDC01B022826D828681D
:101900008001F7D4E86A216B000900010843E8620E
:10191000A16AE06A084369687B22D20391430843C5
:101920006860286830432860FFF7FAFC044604E04A
:10193000FFF7F6FC001B022808D828688001F7D5BD
:1019400009E0FFF7EDFC001B022801D90320FEBDD2
:1019500028688001F5D40020FEBD0120FEBD0000F6
:1019600000000100001002400070004088130000D9
:10197000094910B5401E884201D9012010BD074C0D
:1019800060610321081F00F04FF80020A0610720CC
:101990002061002010BD0000FFFFFF0000E000E01C
:1019A000FEE700000C4841690122D2041143416165
:1019B0000A480268552109030A43026042680F235E
:1019C0009B019A43426082688A438260C168FF2219
:1019D00012039143C16070470010024000080048A4
:1019E000704700008307FF22DB0E9A408907090E2B
:1019F000994000280BDA0007000F083883080848D0
:101A00009B001818C36993430B43C3617047830855
:101A100004489B001B1818689043084318607047DF
:101A200000ED00E000E400E08307FF22DB0E9A40B7
:101A30008907090E994000280BDA0007000F0838C3
:101A4000830808489B001818C36993430B43C3617C
:101A50007047830804489B001B181868904308438C
:101A60001860704700ED00E000E400E07047704748
:101A700010B5FFF75BFC10BD10B592B0342168467D
:101A8000FEF778FB00240F94022000900D940120B3
:101A90000E94039010200994049010946846FFF768
:101AA0007BFD07200D900E940F94002110940DA83B
:101AB000FFF77EFC12B010BD1248016801221143ED
:101AC00001604168104A1140416001680F4A1140AD
:101AD00001600168012292049143016041683F2244
:101AE000120491434160C16A09090901C162016B95
:101AF000074A11400163416B4908490041630021D5
:101B000081607047001002400CB8FF08FFFFF6FE2E
:101B10002CFEFCFF02480169490849000161704739
:101B20000010004010B5044800F0DEFE00F034FD67
:101B300002490120087010BD003801403800002023
:101B400010B517484169012292041143416181692E
:101B5000121111438161134801680F22120391434E
:101B6000016001680522520311430160016A090204
:101B7000090A0162FFF7C6FCE1214902FEF7B8FA43
:101B80000949C86008682D221043086001200749F0
:101B9000C006086001211B20FFF724FF10BD0000D4
:101BA00000100240000400480038014000E100E05D
:101BB0000249087900220A717047000038000020AD
:101BC0000249C8780022CA7070470000380000201F
:101BD00000B5044800F088FE00F048FD02490120ED
:101BE000487000BD004800403800002010B51A4879
:101BF00041690122D20411434161C169521011436C
:101C0000C161164801680F22120291430160144815
:101C100001680522520211430160016A1122120477
:101C200011430162016A7722520491430162FFF776
:101C300069FCE1214902FEF75BFA0A49C8600868BD
:101C40002D221043086088040749086001211D20E7
:101C5000FFF7C8FE10BD000000100240000400485D
:101C6000000800480048004000E100E00FB410B553
:101C700004A9074B02AA039800F0ECF8044602A955
:101C8000002000F083FC204610BC08BC04B01847BC
:101C90008D2500082021020C01D010211046020AD7
:101CA00001D010460839020901D01046091F8208E8
:101CB00001D01046891E420801D0881E7047081ABC
:101CC000704702E008C8121F08C1002AFAD1704705
:101CD0007047002001E001C1121F002AFBD17047AC
:101CE000F0B51FB486B00998089A030D002102438D
:101CF00014D05148514A181850430514119801281E
:101D000010981AD0281A401C00264D4F4D490096B5
:101D100001910490002812DA444211E01198012444
:101D200049A3012801D11098C1430698119A8460F3
:101D30000360C26041600BB0F0BD4042E4E704467E
:101D4000210500203F4A001C51410391029012E0FE
:101D5000E00707D032463B4601990098FEF7FEFBAC
:101D60000191009032463B4610461946FEF7F6FBBD
:101D700006460F466410002CEAD10498039B002805
:101D8000029A0999089806DAFEF7E8FB019B009A87
:101D9000FEF7E4FB05E0FEF749FC019B009AFEF725
:101DA00045FC04460E460022284BFEF7D7FC03D81C
:101DB0000020C043014607E00022254B2046314663
:101DC000FEF71AFBFEF7AAFC102409E0002C0ADB40
:101DD0000A220023FEF79FFA079B30321A55641E31
:101DE00002460A43F2D11122641C079B121B1C19E4
:101DF000119B012B03D0012308430ED10AE00843B5
:101E000004D0112010900020119077E71098151A37
:101E10006D1E0BE01098824202DD00236D1C03E072
:101E2000824201DA00236D1E002BEED00698119934
:101E30008260C16030C07EE701FCFFFF104D0000F2
:101E4000000014400000F03F300000000000F043AC
:101E50000000E03FFFB597B00646002518E22528B0
:101E600077D100242746FD49049400E00443761C02
:101E700032780120203A90400842F7D130782A2861
:101E80000ED00222307801463039092916D804993B
:101E90000A235943303940181443761C0490F1E763
:101EA000189802C804911890002904DA0120400310
:101EB00004434842049002200443761C30782E28C4
:101EC00014D1042004437078761C2A2809D118986C
:101ED000761C80C8189009E00A214F43303FC7198B
:101EE000761C3078014630390929F5D930786C28CC
:101EF00010D006DC4C281AD068280ED06A2817D1DA
:101F000004E0742813D07A2812D110E00120400593
:101F100004430CE00121090501E0032109050C43FC
:101F20007178814203D1012000052418761C761CAB
:101F30003078119066280BD013DC58287DD009DC4E
:101F400000287BD04528F6D04628F4D047281AD15F
:101F5000A5E118E0632835D0642870D0652812D137
:101F60009DE170286CD008DC6728F1D069287BD00F
:101F70006E280DD06F2806D1BAE073282ED07528B0
:101F800071D0782859D01A9A199990476D1C7EE122
:101F90006002400F022809D003280DD004281898A9
:101FA00001680DD00D60001D189070E11898EA17B7
:101FB00001680D604A60F6E7189801680D80F2E745
:101FC0000D70F0E718986A4601781172001D18909C
:101FD0000020507202A80090012005E0189802C865
:101FE000189000200091C04361070DD5002101E049
:101FF0000199491C0191B94212DA8142F8DB009A39
:10200000515C0029F4D10BE0002101E00199491C49
:1020100001918142FADB019A0099895C0029F5D18E
:10202000019904981A9B471A21463846199A00F0DC
:1020300097FA0199401945180BE04FE02CE113E0A5
:102040004EE0009800990078491C00911A9A19995D
:1020500090470198401E0190401CF2D1214638461D
:102060001A9B199A10E137E00A2000210090019193
:102070006002410F022907D0189A01CA1892C217AC
:102080009446032908D00AE01898C01DC108C90069
:1020900005C91891944607E000B2C2179446042976
:1020A00002D140B2C1178C4600226146944506DA3F
:1020B0000A460021404291418C462D2102E0210533
:1020C00004D52B216A461173012103E0E10701D0F9
:1020D0002021F7E7029155E00A200AE0102008E0ED
:1020E000102000900021042004430191082703E000
:1020F00008200021019100906002410F022907D0C1
:10210000189A01CA189200229446032908D008E0C0
:102110001898C01DC108C90005C91891944603E06C
:1021200080B2042900D1C0B200210291210729D533
:102130001199702906D0009A1021019B4A401A4338
:1021400005D00EE040216A461173012108E0614686
:10215000014306D030216A4611731199517302214F
:102160000291009A0821019B4A401A430AD1614614
:10217000014301D1610705D530216A461173012160
:102180007F1E02911199582904D035A10E910DA9F5
:102190000D910DE037A1F9E76146019B009AFEF72A
:1021A000BAF80E9B8C469B5C0D9A521E0D921370D2
:1021B00061460143F0D10D9805A9081A203001901D
:1021C000600703D501200004844300E00127019843
:1021D000874201DD381A00E0002001990090411883
:1021E000029809180498401A0490E00306D4214686
:1021F0001A9B199A049800F0B3F94519002706E0D4
:1022000003A81A9AC05D199990476D1C7F1C02980B
:102210008742F5DBE0030CD521461A9B199A0498F6
:1022200000F09EF9451904E01A9A30201999904758
:102230006D1C0099481E00900029F5DC08E00D98FF
:102240000D990078491C0D911A9A199990476D1CA7
:102250000199481E01900029F1DC63E10928010081
:10226000303132333435363738396162636465660C
:1022700000000000303132333435363738394142CE
:10228000434445460000000000F05AF94519761C09
:102290003078002800D0E2E528461BB0F0BD60078A
:1022A00000D406271898C01DC108C90048680A68EC
:1022B0000831C30FDB071891190001D09CA108E079
:1022C000210501D59BA104E0E10701D09AA100E01E
:1022D0009AA1430011985B08109165280CD006DC88
:1022E000452809D046281DD0472841D141E066281D
:1022F00018D067283CD13CE00021112F01DB1120D0
:1023000000E0781C0191009008A911A8FFF7E8FCF3
:10231000139905910021119A15927F1C129801972B
:10232000009150E00120C00703900120019008A90E
:10233000009711A8FFF7D4FC139A14990592002274
:10234000119B009212981593059A0192002901D0D1
:10235000104602E0791C40180190381A01D5019806
:1023600004E04042401E0090781C0190C01B029087
:1023700043E0012F00DA01270021112F01DD112098
:1023800000E038460191009008A911A8FFF7A8FCC9
:1023900013990591119A00211298159200910197B5
:1023A00021070CD40599B94201DB019900E00191A4
:1023B000012904DD159A491E515C302906D0B84226
:1023C00001DA011D05DA0121029115E00199491E8A
:1023D000EDE7002805DC0099411800910199091AE0
:1023E00003E0019A411C914200DD01910099401ADD
:1023F000401C02900120C0070390200706D40299D8
:102400000198814202DB0020C0430290002069460F
:10241000C87707AF012103980337C907884224D042
:10242000022011902B201290039800280CDA4042D1
:1024300003902D20129007E00A210398FDF758FE23
:1024400030317F1E039039701199481E1190002978
:10245000F2DC03980028EFD1791E129808703078CA
:10246000202108404530BF1E387006A8C01BC01D83
:10247000039010980078002800D00120019941189D
:102480000298C0170918039809180498401A401EAA
:102490000490E00306D421461A9B199A049800F090
:1024A0005FF8451910980078002803D01A9A1999F6
:1024B00090476D1CE00324D521461A9B199A049875
:1024C00000F04EF845191CE00098002807DB009941
:1024D0000598884203DD1598405C199901E0199927
:1024E00030201A9A904700986D1C401C009002986A
:1024F000401E0290002804D11A9A2E201999904764
:102500006D1C0199481E01900029DDDC05E038783A
:102510001A9A7F1C199990476D1C0399481E0390C5
:102520000029F4DC21461A9B199A0498ACE60000B5
:102530002D0000002B000000200000000000000023
:10254000F8B5044600251E461746880404D405E065
:1025500039462020B0476D1C641EF9D52846F8BDC9
:10256000FFB50446002581B01E46C80301D53027BB
:1025700000E02027880404D505E038460399B047D9
:102580006D1C641EF9D5284605B0F0BD0A68531CC1
:102590000B60107070470000F8B5324CA268511CF7
:1025A000A1602146193188540025002A03D0012357
:1025B000012A08D00DE02571E570E5712561EE284E
:1025C00000D12571F8BD0E78BB2E10D00E78EE2EFE
:1025D00011D0E0790028F5D02069461CB242F1D133
:1025E00001222271012837D006280BD034E0E37194
:1025F00048782061F8BD012800D00020E070A56077
:1026000025712BE0C8788A78000210434A7900B21D
:102610000B7912021A4312B20092CA798979120216
:102620000A4317B2FDF753FE0321C943FDF743FEEA
:102630000D4EB0603846FDF74AFE0321C943FDF751
:102640003AFE70600098FDF742FE0321C943FDF792
:1026500032FE306001206071A560E570E571256192
:10266000F8BD0000380000206C00002030B514498F
:10267000CB680A461432D4185B1CCB6020701378E8
:102680000020FF2B13D1CB68052B10D19378547801
:102690001B0223431DB21379D4781B0223430C463B
:1026A00024341BB26560236001238B71C8601278EB
:1026B000FF2A02D1CA68052A00D1C86030BD0000D7
:1026C0003800002010B500F0FAF8FFF76BF900F0C1
:1026D00093F8FEF7EFF8FEF763FC10BD10B5FF218D
:1026E00069315A3800F0E0F8FDF7F1FD0249FDF7D5
:1026F000A5FDFDF7F7FD10BD295C0F3F10B5FF21CB
:1027000069315A3800F0D0F8FDF7E1FD0249FDF7D4
:1027100095FDFDF7E7FD10BD295C0F3F92B000F07D
:10272000E9F8FEF721FCFF2000F0D6F800F0A8F849
:1027300000282FD00FA800F07BF81F4807881098BA
:10274000FFF7DCFF00F0A6F90F98FFF7C7FF00F0D6
:102750009BF900F061F8019000F064F8009000F03F
:102760004FF8064600F052F8054600F07DF80446A2
:1027700000F080F8024601990098039102902346E8
:102780000497019600950DA105A8FFF76FFA05A81B
:1027900000F09AF8FEF7E4FB00280AD06846FEF73E
:1027A00085F8019800F0D6F8009800F0B1F8FEF72F
:1027B000DBFB00F087F9B9E7000000207461726765
:1027C00065742825642C202564290961637475616A
:1027D0006C2825642C202564290963757272656E46
:1027E000742825642C2025642909666F7263653A74
:1027F0002025640D0A00000010B5FFF7F7F910BDA1
:102800000148C06870470000080000200148006AC5
:102810007047000008000020014840697047000030
:10282000080000200148806A70470000080000206E
:10283000044A00219171114624310A6802604968F6
:102840004160704738000020054A00215171054958
:102850000A6802604A6842608968816070470000C7
:10286000380000206C00002001488068704700009C
:10287000080000200148C0697047000008000020DF
:1028800001488079704700003800002001484079F5
:102890007047000038000020FEF750FDFFF7ECF80D
:1028A000FFF710FFFFF73AFF70B50C460546FDF73E
:1028B00035FC002D01DA081970BD084670BD10B551
:1028C000FEF7D6FB10BD000010B50146014800F030
:1028D000ECF810BD0048004010B50146014800F07A
:1028E000DFF810BD00480040C1698906FCD5808C26
:1028F000C0B2704710B5002000F0CCF8002000F006
:10290000C3F810BD014880787047000051000020D6
:1029100010B5FF21C9050B4CC84203D30A49FDF786
:102920008DFC05E00949FDF789FC0949FDF782FCAA
:10293000FDF7D8FCE060C821E068FDF7EFFBE1603F
:1029400010BD000008000020E4380EBFE4380E3F40
:102950000000484370B5FF21C9050D4D0D4CC8421C
:1029600009D30D49FDF711FC2946FDF767FC0B491A
:10297000FDF70BFC02E02946FDF760FCFDF7B2FC19
:102980002062C821206AFDF7C9FB216270BD0000EA
:10299000295C0F3F08000020000034430000C842BB
:1029A00010B5002901D0054B00E0054B002A00D0EE
:1029B000012201461846FEF7ADFC10BD0004004898
:1029C0000008004810B50449887002460120002123
:1029D0008002FFF7E5FF10BD08000020024610B599
:1029E00001200021000300F015F810BD10B50449C6
:1029F00048710121484002460420FFF7D1FF10BD75
:102A00000800002010B502460121082000F002F85D
:102A100010BD0000F8B5194C06461546002912D025
:102A2000174F082E23D1002D21D06079002803D024
:102A3000A06AC821401C02E0A06AC821401EFFF71E
:102A400033FFA06213E001200E4F000386420ED137
:102A5000002D0CD0A078002803D06069C821401C4C
:102A600002E06069C821401EFFF71EFF60612A4630
:102A700031463846FEF74EFCF8BD00000800002045
:102A800000040048000800480149886070470000C1
:102A9000080000200149C8617047000008000020BC
:102AA000C2691206FCD50185704730B50C46054653
:102AB000002303E02846FFF7F3FF5B1CE15C0029DD
:102AC000F8D130BDF0B5012689B000205B4C0790ED
:102AD0000690E0693546A16A401AC821FFF7E4FE76
:102AE0000746A06AE169401AC821FFF7DDFE03909E
:102AF000A0686169401AC821FFF7D6FE009060699E
:102B0000A168401AC821FFF7CFFE029003988742C0
:102B100001DA012004E0874220DC002F02D0207976
:102B200007901BE0E16A7D20C00081421CDB002091
:102B3000E062206AA16A401AC821FFF7B5FE074685
:102B4000A06A216A401AC821FFF7AEFE022F01DBFE
:102B5000022801DA002601E0206AA06202990098AA
:102B600088420BDA01200EE0206A616A884202D1B5
:102B7000E06A401C00E00020E062EBE788422CDCC9
:102B8000002802D06078069027E06069002802DB08
:102B90006069322805DB606996281ADD6069C828FB
:102BA00017DAA1697D20C00081423CDB0020A061D2
:102BB000E0686169401AC821FFF776FE0746606940
:102BC000E168401AC821FFF76FFE022F01DB0228DF
:102BD00001DA002501E0E06860610798FFF706FF71
:102BE0000698FFF7EFFE002E02D00120FFF70AFF44
:102BF000002D02D00120FFF7F1FE0A20FEF7D0FAE7
:102C0000002E02D00020FFF7FDFE002D02D0002094
:102C1000FFF7E4FE0A20FEF7C3FA206A6062E0686C
:102C2000206109B0F0BDE0682169884202D1A06945
:102C3000401C00E00020A061CBE70000080000205D
:102C4000000000000000000001020304060708095C
:102C500001000001400000009000002090040020CE
:102C6000400500200000000043616C6962726174DD
:102C70006520746865204D61676E65746F6D65745D
:102C800065722C206279206D6F76696E672074689A
:102C90006520636861697220696E206120666967DA
:102CA0007572652038207061747465726E202872A8
:102CB0006F636B20666F7277617264207768696CEE
:102CC000652074696C74696E672072696768742026
:102CD000616E642076697365207665727361290D73
:102CE0000A00000043616C69627261746520746857
:102CF0006520416363656C65726F6D657465722CE8
:102D0000206279206F7269656E74696E67207468DD
:102D10006520636861697220696E20362073746172
:102D2000626C6520706F736974696F6E20666F7274
:102D3000206120706572696F64206F662061206673
:102D40006577207365636F6E6473207768696C655F
:102D5000206D616B696E672073757265207468659C
:102D6000726520697320736C6F77206D6F76656D67
:102D7000656E74206265747765656E206561636851
:102D800020706F736974696F6E2E0D0A0000000069
:102D900043616C696272617465207468652047796B
:102DA000726F73636F70652C206279206B6565703C
:102DB000696E672074686520636861697220696E56
:102DC000206120737461626C6520706F736974692F
:102DD0006F6E20666F722061206665772073656371
:102DE0006F6E64732E0D0A00082E0008000000208C
:102DF0006C000000C21C0008742E00086C0000204B
:102E0000FC080000D21C00080000000000000000C8
:102E100000000000000000000000000000000000B2
:102E200000000000000000000000000000000000A2
:102E30000000000000000000000000000000000092
:102E40000000000000000000000000000000000082
:102E50000000000000000000000000000000000072
:102E60000000000000000000000000000000000062
:042E700000127A00D2
:04000005080000C12E
:00000001FF
