:020000040800F2
:1000000028090020D5000008F50E0008B50E0008EC
:1000100000000000000000000000000000000000E0
:10002000000000000000000000000000830F000836
:100030000000000000000000810F0008850F00088C
:10004000E7000008E7000008E7000008E7000008F4
:10005000E7000008E7000008E7000008E7000008E4
:10006000E7000008E7000008E7000008E7000008D4
:10007000E7000008E7000008E7000008E7000008C4
:10008000E700000829100008E7000008E700000862
:10009000E7000008E7000008E7000008E7000008A4
:1000A000E7000008E7000008E70000083910000832
:1000B000E7000008C5100008E7000008E700000896
:1000C0000348854600F062F800480047D114000854
:1000D000280900200448804704480047FEE7FEE75F
:1000E000FEE7FEE7FEE7FEE7CD0F0008C1000008CF
:1000F00030B50B46014600202022012409E00D46C0
:10010000D5409D4205D31D469540491B2546954047
:1001100040191546521E002DF1DC30BD70B500248B
:100120002546002801DA01244042002901DA012590
:100130004942FFF7DDFFAC4200D04042002C00D026
:10014000494270BD03460B439B0703D009E008C931
:10015000121F08C0042AFAD203E00B780370401C77
:10016000491C521EF9D27047D2B201E00270401C05
:10017000491EFBD270470022F6E710B513460A4627
:1001800004461946FFF7F0FF204610BD064C012536
:10019000064E05E0E36807CC2B430C3C984710342F
:1001A000B442F7D3FFF790FF881A0008A81A000896
:1001B00010B500F04FFF1F4CAA21204601F036FB7E
:1001C0000021204601F032FB0721204601F02EFBE2
:1001D0000121204601F02AFB0021204601F026FBE8
:1001E000AA21204601F022FB0021204601F01EFB3F
:1001F0003E21204601F01AFB0121204601F016FBAA
:100200000021204601F012FBAA21204601F00EFB3E
:100210000021204601F00AFB3D21204601F006FBAB
:100220000121204601F002FB0C21204601F0FEFADC
:1002300010BD0000003801400849097800290AD0A3
:100240008103064A490EB03A515C4005400FC14057
:10025000C807C00F7047002070470000000500204D
:1002600010B500F097F9094B0446EFF3108272B60F
:1002700099699861002A00D162B68C4203D2034882
:10028000103001F046F8204610BD000000050020A7
:10029000FEB515460E00044603D0012040028542FB
:1002A00001D90020FEBD2046FFF7C6FF00280AD076
:1002B000FFF7D6FFA1B20090EFF30580002804D02D
:1002C0000124E40402E00120FEBD00240C43002DC3
:1002D0000FD0082D12D80020019002902A463146F6
:1002E00001A8FFF72FFF6807400B204303210906F1
:1002F0003EE000231A46204600993CE000F0CCF98D
:100300004007470B0822314601A8FFF71BFF204694
:10031000012138430906084369460EC9083D0836DD
:1003200000F02EF80028CFD014483C4604430EE0DD
:100330000822314601A8FFF705FF6F460ECF204681
:10034000641C083D083600F01BF80028BCD0082DBE
:10035000EED80020019002902A46314601A8FFF70E
:10036000F1FEFF20000284432802204301214906B8
:1003700008436F460ECF00F003F8FEBD01FF0000FA
:10038000FFB581B01D460E464024334800F0C1FF42
:100390008006810D31480818EFF3108372B6C168EA
:1003A0004A0104D50127FF060A46BA4302E00322A8
:1003B00092060A43C260002B00D162B64A0143D4C0
:1003C000012212058B180F2212051340D2028A4314
:1003D000710049081143016003994900490811431C
:1003E0004160690049081143816001991943F3088C
:1003F0001B0F1B071943039B9B085B0F5B071943EC
:100400006B089B0F9B0719431143EFF3108372B6E0
:10041000C268170104D50122D2061143012206E069
:100420001146012292069143520151400022C160BF
:10043000002B00D162B6002A06D00748001D00F04C
:1004400068FF012005B0F0BD641E9ED1024808304F
:1004500000F05FFF0020F5E70405002050000020B9
:10046000F0B58C468646FF2901D2FF2A01D3002031
:10047000F0BD00252C460121A140734619420FD042
:1004800063460BE0D8084019084E5907365C490FFF
:1004900001278F403E43054F5B1C3E549342F1D9E8
:1004A000641C2035042CE6D30120F0BD500400204C
:1004B000F8B50646304B3148314C0D4618221978B4
:1004C0000902484008215B1C070403D54004000CC6
:1004D000604001E04004000C491EF5D1521EEED1EF
:1004E000284C294A236A0121934201D0226202E06A
:1004F0006288824202D06080E1611CE0E069401CB9
:10050000E061012817D00020204B0325AD06010132
:10051000C918CA68560101D5AA43CA60401C4028C0
:10052000F5D3FFF79DFE014600231948E269FFF766
:1005300027FF0120F8BD012189021448FFF71BFEA7
:1005400010488021B038FFF716FEFE220021304609
:10055000FFF786FF002D01D0012000E00020207071
:10056000002565706560A560E56000F01BF8A56179
:1005700025616061D5E70000CC190008FFFF00008D
:1005800021100000000500206B27A5E1500000208D
:1005900000FF000302490868421C0A60704700001F
:1005A0004000002001490020086070474000002002
:1005B00010B500F095FD10BD08B500200346009071
:1005C00001223C21014800F003F808BD0004004866
:1005D000F0B59E4694460E4605460923DB0628489C
:1005E0002849294F294A2A4C87B09D4202D1616986
:1005F000C00125E0854208D16169012080040143E2
:1006000061616169014005910AE08D4208D161692B
:100610000120C004014361616169014005910AE064
:10062000BD4208D161690120000501436161616932
:10063000014005910AE0954208D161690120400519
:100640000143616161690140059106E011488542FD
:1006500003D1616901208005F2E760460190704690
:1006600002900C98039000966946284600F030F8F6
:1006700000223146284600F0D7F807B0F0BD000050
:100680000004004800080048000C00480010004822
:1006900000100240001400480549EFF3108272B6C2
:1006A0004878431C4B70002A00D162B670470000A6
:1006B0000005002031B500F0BDF8009C0546601C27
:1006C00000D0641C00F0B6F8401BA042FAD338BD3D
:1006D000F8B5002393E0224601249C40A446224022
:1006E0007ED04C68022C01D0122C0CD1DC08A40066
:1006F00027183C6A5D07ED0E0F26AE40B4430E6925
:10070000AE4026433E6205685E000324B4400F7984
:10071000A543BF07BF0FB7402F4307604D68012DAA
:1007200005D0022D03D0112D01D0122D0ED18568D8
:10073000CF68A543B7402F43876047686546AF43FE
:100740000D79ED06ED0F9D403D434560C568A5431D
:100750008C68B4402C43C4604C68E4004ED52B4CEC
:10076000A56901263543A561A4699D08344000941C
:10077000274CAD002F19BC689D072E0F0F25B540E3
:10078000AC430925ED06A84201D1002514E0214D16
:10079000A84201D101250FE01F4DA84201D1022539
:1007A0000AE01E4DA84201D1032505E01C4DA842D8
:1007B00001D1042500E00525B5402543BD60194C55
:1007C00025684E689543F60300D515432560656896
:1007D0004E689543B60300D515436560A56800E0F3
:1007E0000CE04E689543F60200D51543A560E56818
:1007F0004E689543B60200D51543E5605B1C0A6858
:100800001446DA4000D066E7F8BD00000010024050
:10081000000001400004004800080048000C0048A7
:100820000010004800040140002A01D08161704797
:100830008162704701480068704700001C0000207A
:1008400002480168491C0160704700001C0000203C
:1008500010B506480168102211430160002000F025
:1008600007F800F017F8002010BD0000002002403B
:1008700010B5044600F0D0F87D21C900FFF738FC20
:1008800000F000FB00222146501E00F017F8002067
:1008900010BD000008B5084881690122114381613B
:1008A000816911400091C26901040A43C261C069B3
:1008B0000840009008BD00000010024010B500F094
:1008C0003DFB10BDF8B505464E480E460068C00712
:1008D000C00FB0420AD24B48016849084900314371
:1008E00001600068C007C00FB04270D12878464C44
:1008F000800705D56068F0218843A96808436060D7
:100900002878C00753D06868012817D0022818D06B
:10091000032819D021688907002958DA61688908F5
:10092000890001436160FFF785FF69680746012977
:1009300013D002291DD0032927D034E02168890370
:10094000EAE721688901E7E7616BC903E4E7FFF79C
:1009500071FFC11B2D48814223D860680007800FBA
:100960000128F4D123E0FFF765FFC11B274881422E
:1009700017D860680007800F0228F4D117E0FFF74E
:1009800059FFC11B214881420BD860680007800FC6
:100990000328F4D10BE0FFF74DFFC11B1B48814238
:1009A00001D90320F8BD60680007800FF3D1154816
:1009B0000168C907C90FB1420BD90168490849004C
:1009C000314301600068C007C00FB04201D0012070
:1009D000F8BD2878400706D56068072109028843DA
:1009E000E9680843606000F01DF86168084A09067C
:1009F000090F515CC840074908600020FFF738FF25
:100A00000020F8BD002002400010024088130000C2
:100A1000BC19000820000020014800687047000051
:100A20002000002030B516A30FCB89B06C460FC450
:100A300017A30FCB0FC41A494A680C201446044070
:100A40001848042C05D0184B082C04D00C2C00D1CD
:100A5000184609B030BD9402240F6D462C5DC96A5A
:100A600004AD0907090FD203695C920F022A02D074
:100A7000032A00D11846FFF73BFB6043E9E700007B
:100A800002030405060708090A0B0C0D0E0F1010CF
:100A90000102030405060708090A0B0C0D0E0F10CE
:100AA0000010024000127A00006CDC02FEB5044621
:100AB0000078F04EF04DC00748D068680007800FFE
:100AC00001281FD068680007800F022804D16868D9
:100AD000C003800F022815D06168012919D00120B8
:100AE0008004002901D0052917D02968B143296065
:100AF000296881432960606800281BD0FFF79AFEAF
:100B0000074613E02868800320D56068002876D067
:100B10001CE0286830432860EDE72968014329601C
:100B2000F7E7FFF787FEC01B642869D828688003B1
:100B3000F7D50BE0FFF77EFE074604E0FFF77AFEED
:100B4000C01B6428F1D828688003F7D42078800778
:100B50003ED568680007800F14D068680007800FD2
:100B6000022804D16868C003800F01280AD0E06819
:100B7000002828681DD0012108432860FFF75AFE8D
:100B800007460BE0286880070BD5E068012836D1BE
:100B900007E0FFF74FFEC01B0228C6D82868800771
:100BA000F7D52868F82188432169C90008432860DF
:100BB0000EE0400840002860FFF73CFE074604E0D6
:100BC000FFF738FEC01B0228AFD828688007F7D48B
:100BD0002078000724D5E0690028686A11D0012137
:100BE00008436862FFF726FE074604E0FFF722FE8F
:100BF000C01B022899D8686A8007F7D510E036E153
:100C0000D1E0400840006862FFF714FE074604E0A8
:100C1000FFF710FEC01B022887D8686A8007F7D448
:100C2000207804274007002861DA00200190E86955
:100C3000C00008D4E969B8060143E961E9690140E7
:100C40000120009101908D480168C90511D4016807
:100C5000821511430160FFF7EDFD009005E0FFF7FD
:100C6000E9FD0099401A642897D884480068C005B7
:100C7000F5D5A06801280AD0002801D0052811D098
:100C8000286A400840002862286AB84302E0286ABF
:100C9000012108432862A068002812D0FFF7CAFD8E
:100CA00000900AE0286A38432862F0E7FFF7C2FDA7
:100CB0000099411A7248814275D8286A8007F5D593
:100CC0000DE0FFF7B7FD009006E0FFF7B3FD0099D8
:100CD000411A6B48814266D8286A8007F5D401988A
:100CE000002804D0E969012000078143E9612078E8
:100CF000C00635D5606901280CD0401D686B24D032
:100D000038436863686B400840006863FFF792FDF2
:100D1000074622E0686B38436863686B012108432B
:100D20006863FFF787FD074604E0FFF783FDC01BFC
:100D3000022838D8686B8007F7D5686BF82188439C
:100D4000A169C900084368630AE0B8436863F4E72F
:100D5000FFF770FDC01B022825D8686B8007F7D409
:100D60002078800637D568680007800F032813D0E5
:100D700068680007800F022804D16868C003800FEC
:100D8000032809D0206A0028686B16D030436863B6
:100D9000FFF750FD06460CE0686BC0031BD5206AC8
:100DA000012864D117E05BE0FFF744FD801B0228B7
:100DB00056D8686BC003F7D50DE0B0436863FFF702
:100DC00039FD064604E0FFF735FD801B022847D8B1
:100DD000686BC003F7D4606A002846D069680907C9
:100DE000890F022943D0012636060228286805D03B
:100DF000B0432860FFF71EFD044633E0B04328608F
:100E0000FFF718FD074604E0FFF714FDC01B02289A
:100E100026D828688001F7D4E86A216B0009000110
:100E20000843E862A16AE06A084369687B22D2034A
:100E3000914308436860286830432860FFF7FAFC54
:100E4000044604E0FFF7F6FC001B022808D82868D7
:100E50008001F7D509E0FFF7EDFC001B022801D95E
:100E60000320FEBD28688001F5D40020FEBD0120CE
:100E7000FEBD0000000001000010024000700040B4
:100E800088130000094910B5401E884201D901208D
:100E900010BD074C60610321081F00F04FF80020CF
:100EA000A06107202061002010BD0000FFFFFF00AF
:100EB00000E000E0FEE700000C4841690122D20496
:100EC000114341610A480268552109030A4302603F
:100ED00042680F239B019A43426082688A43826082
:100EE000C168FF2212039143C160704700100240A5
:100EF00000080048704700008307FF22DB0E9A407D
:100F00008907090E994000280BDA0007000F0838FE
:100F1000830808489B001818C36993430B43C361B7
:100F20007047830804489B001B18186890430843C7
:100F30001860704700ED00E000E400E08307FF2246
:100F4000DB0E9A408907090E994000280BDA00074A
:100F5000000F0838830808489B001818C36993439A
:100F60000B43C3617047830804489B001B18186833
:100F7000904308431860704700ED00E000E400E093
:100F80007047704710B5FFF75BFC10BD10B592B00D
:100F900034216846FFF7EFF800240F9402200090F8
:100FA0000D9401200E940390102009940490109445
:100FB0006846FFF77BFD07200D900E940F940021EB
:100FC00010940DA8FFF77EFC12B010BD1248016806
:100FD0000122114301604168104A114041600168DB
:100FE0000F4A11400160016801229204914301609F
:100FF00041683F22120491434160C16A0909090115
:10100000C162016B074A11400163416B4908490005
:101010004163002181607047001002400CB8FF0856
:10102000FFFFF6FE2CFEFCFF02480169490849005B
:10103000016170470010004000B5044800F06EFBED
:101040000349C8700120087000BD0000003801404D
:101050001800002010B5174841690122920411437D
:1010600041618169121111438161134801680522B0
:10107000520311430160016A1122120611430162F9
:10108000016A7722520691430162FFF7C5FC4B21AA
:10109000C901FFF72DF80949C86008682D221043DF
:1010A000086001200649C006086001211B20FFF7E7
:1010B00023FF10BD0010024000040048003801402A
:1010C00000E100E000B5044800F028FB0349887007
:1010D0000120487000BD00000048004018000020BA
:1010E00010B5174841690122D20411434161C16919
:1010F00052101143C1611348016805225202114385
:101100000160016A1122120411430162016A77220F
:10111000520491430162FFF77FFC4B21C901FEF7A6
:10112000E7FF0949C86008682D2210430860880459
:101130000649086001211D20FFF7DEFE10BD0000FA
:1011400000100240000800480048004000E100E0B4
:101150000FB410B503A9044B044A029800F02CF810
:1011600010BC08BC04B018478514000830000020EB
:101170000FB410B504A9074B02AA039800F01CF89D
:10118000044602A9002000F0BFF8204610BC08BCAD
:1011900004B018470913000802E008C8121F08C16C
:1011A000002AFAD170477047002001E001C1121FE8
:1011B000002AFBD170470000FFB58DB00446002522
:1011C00006E025280AD0109A0F999047641C6D1CE0
:1011D00020780028F5D1284611B0F0BD0027012164
:1011E000484A009700E00743641C23780846203BE8
:1011F00098401042F7D120782E2817D104200743B9
:101200006078641C2A280CD10E98641C02C80091D6
:101210000E900BE000990A22514330394018641CAB
:1012200000902078014630390929F3D92078002828
:10123000D1D0642808D0692806D075281ED0109A0D
:101240000F9990476D1C5BE00A200E99019001C92F
:101250000E91002802DA40422D2102E0390504D522
:101260002B216A461172012103E0F90704D02021E5
:10127000F7E70BAE0B910DE00021FAE70A200E997B
:10128000019001C90E91F7E70199FEF731FF303166
:10129000761E31700028F7D103A8801B2030019002
:1012A000780701D5009801E001200090019988425B
:1012B00001DD401A00E000200027009006E002A8AF
:1012C000109AC05D0F9990476D1C7F1C0B98874248
:1012D000F5DB04E0109A30200F9990476D1C0099BF
:1012E000481E00900029F5DC05E03078109A761C45
:1012F0000F9990476D1C0199481E01900029F4DC5C
:10130000641C65E7092801000A68531C0B60107013
:101310007047EFF3108172B60268531C0360002916
:1013200000D162B61046704710B500F010F9FFF713
:10133000C3FDFFF73DF9FEF73BFF10BD10B500F010
:101340000BF935E000F0C6F9642C22D006DC0A2C3B
:101350000DD00D2C0BD0612C06D11FE0722C24D0A7
:10136000732C0FD0772C08D0204600F0BBF900F08A
:1013700019FB04467128E5D110BD0FA000F0A2F9B9
:10138000012003E014A000F09DF9002000F040FAD5
:10139000EDE709A000F096F9012003E00EA000F0AF
:1013A00091F9002000F026FAE1E715A000F08AF993
:1013B00000F0BAF9DBE700000D0A0920526F6C6CEF
:1013C000205374657070696E6720436C6F636B7730
:1013D0006973652E2E2E00000D0A0920526F6C6C69
:1013E000205374657070696E6720436F756E746505
:1013F000722D436C6F636B776973652E2E2E000020
:10140000095265736574696E6720616C6C21000018
:1014100010B5C821FEF782FEFF216931484310BD97
:1014200010B5C821FEF77AFEFF216931484310BD8F
:101430008EB000F0C7F800F077F971210AA800F02B
:1014400065FA0A98FFF7ECFF04460B98FFF7E0FFF8
:10145000204600F0C9F9204600F0C0F905A1684611
:101460000B9B0A9AFFF784FE684600F02BF900F008
:10147000EFF9E2E7464720474F543A2025642C25F0
:10148000640D0A0070B50F4A0023DB43914204D17A
:101490000D4D04462A68082A01D3184670BD0A4833
:1014A000001D8454521C2A60082A01D00A2C06D13F
:1014B00005490648091DFEF7EBFE0020286020467E
:1014C00070BD0000300000202400002000FE02005B
:1014D000FFF7BEF9FFF75AFD01210F20FEF7E8FFE5
:1014E000FFF722FF02A0FFF733FE00F007F8F9E74D
:1014F00048656C6C6F20576F726C640070B500F0BB
:10150000B7F800F011F9002500F04CFA04467128F4
:101510001AD000F0DFF8612C0DD004DC0A2CF3D0D7
:101520000D2CF1D003E0622C08D0712C08D020469D
:1015300000F0D8F8E8E7FFF701FFE5E7FFF778FFED
:1015400000F086F80125DFE7002DDDD070BD10B575
:10155000FFF732F810BD000010B50CA000F0B2F893
:1015600010A000F0AFF8104800F0ACF80DA000F0AB
:10157000A9F80E4800F0A6F80AA000F0A3F80CA005
:1015800000F0A0F807A000F09DF810BD0A0D094476
:1015900065627567206D6F64652073656C65637443
:1015A000656400000A0D0000E4190008341A000800
:1015B0005B725D526573657409095B715D3D7175A0
:1015C0006974000010B509A000F07CF80FA000F0CD
:1015D00079F80FA000F076F80CA000F073F817A0CF
:1015E00000F070F809A000F06DF810BD0A0D094672
:1015F0006C696768742047656172206D6F6465204F
:1016000073656C6563746564000000000A0D00007A
:1016100052656164696E6720526F6C6C20616E6404
:10162000205069746368202850726573732071209C
:10163000746F20717569742900000000466F726D27
:1016400061743A20526F6C6C2C50697463680000AE
:1016500010B503A000F036F804A000F033F810BD78
:101660000A0D476F6F642042796521000A0D000062
:1016700010B506A000F026F808A000F023F80CA092
:1016800000F020F80EA000F01DF810BD0A0D09535F
:10169000454C454354204D4F444500000A0D5B61C5
:1016A0005D2009094445425547204D6F646500009F
:1016B0000A0D5B625D2009094647204D6F64650095
:1016C0000A0D000010B50146014800F0B4F810BD45
:1016D0000048004010B50146014800F0A7F810BDD1
:1016E0000048004010B5044604A0FFF7EBFF204679
:1016F000FFF7F0FF08A0FFF7E5FF10BD0A0D556EDC
:101700007265636F676E697A6564204368617261B0
:10171000637465723A2000000A0D0000C1698906F1
:10172000FCD5808CC0B2704710B5002000F05CF88A
:10173000002000F053F810BD10B503460022102120
:10174000014800F021F810BD0004004810B5034620
:1017500000222021014800F017F810BD00040048C5
:1017600010B5034601220421014800F00DF810BD18
:101770000004004810B5034601220821014800F08A
:1017800003F810BD00040048F8B5134C0E46074698
:101790001D46002A0DD0E078002803D06069C821DA
:1017A000401C02E06069C821401EFEF7B7FC616181
:1017B0000CE0E079002803D0E068C821401C02E07A
:1017C000E068C821401EFEF7A9FCE1602A463146C8
:1017D0003846FFF729F8F8BD00000020014988606D
:1017E00070470000000000200149086170470000B8
:1017F0000000002010B50120FFF7A8FF0A20FEF727
:1018000059FF0020FFF7A2FF0A20FEF753FF10BD8B
:1018100010B50120FFF7AEFF0A20FEF74BFF0020B6
:10182000FFF7A8FF0A20FEF745FF10BDC2691206A8
:10183000FCD50185704730B50C460546002303E012
:101840002846FFF7F3FF5B1CE15C0029F8D130BDAF
:10185000F0B50126002089B02B4C07460590206981
:1018600035466169401AC821FEF758FC019160694C
:101870002169401AC821FEF751FC0391A068E16874
:10188000401AC821FEF74AFC0091E068A168401A9E
:10189000C821FEF743FC0846019A03998A4201DAFF
:1018A000012102E0002A02D0A179059100E0002682
:1018B0000099814201DA012704E0002901D0A778CC
:1018C00000E000250598FFF74BFF3846FFF734FF8F
:1018D000002E02D00120FFF74DFF002D02D0012085
:1018E000FFF734FF0A20FEF7E5FE002E02D00020AD
:1018F000FFF740FF002D02D00020FFF727FF0A204E
:10190000FEF7D8FE09B0F0BD0000002070B58AB027
:101910000E460D2000F03CF80028FAD012A0FFF788
:1019200017FC0A2000F034F80028FAD011A0FFF7C5
:101930000FFC002400F036F86D4603E02855641CC7
:1019400000F030F82C28F9D12C2EF7D10DA0FFF79C
:10195000FFFB00202855044600F024F805AD28556B
:10196000641C00F01FF8FAE7676F74204352210AE5
:1019700000000000676F74206E65776C696E6521EA
:101980000A000000676F7420636F6D6D61210A00AB
:1019900000B5034600F006F8984201D1012000BDD1
:1019A000002000BD044900224A708A70487800284F
:1019B000FCD088788A707047180000200000000072
:1019C00000000000010203040607080901000001ED
:1019D00040000000500000205004002000050020BE
:1019E000000000005B775D526F6C6C20636C6F636E
:1019F0006B77697365095B735D526F6C6C20636F05
:101A0000756E7465722D636C6F636B7769736509AE
:101A10005B2D5D446563726561736520726F6C6CEC
:101A2000095B2B5D496E63726561736520726F6C33
:101A30006C3B00005B645D506974636820636C6F8D
:101A4000636B77697365095B615D506974636820D6
:101A5000636F75746E65722D636C6F636B776973FA
:101A600065095B3C5D4465637265617365207069FF
:101A7000746368095B3E5D496E63726561736520DE
:101A80007069746368000000A81A00080000002054
:101A90003400000098110008DC1A0008340000200F
:101AA000F4080000A8110008000000000000000079
:101AB0000000000000000000000000000000000026
:101AC000000000000000000000127A00000000008A
:0C1AD0000000000000000000000000000A
:04000005080000C12E
:00000001FF
