:020000040800F2
:1000000038040020D5000008810C0008690B0008A6
:1000100000000000000000000000000000000000E0
:100020000000000000000000000000000F0D0008AC
:1000300000000000000000000D0D00084D0D00083C
:10004000E7000008E7000008E7000008E7000008F4
:10005000E7000008E7000008E7000008E7000008E4
:10006000E7000008E7000008E7000008E7000008D4
:10007000E7000008E7000008E7000008E7000008C4
:10008000E7000008F10D0008E7000008E70000089D
:10009000E7000008E7000008E7000008E7000008A4
:1000A000E7000008E7000008E7000008E700000894
:1000B000E70000084D0E0008E7000008E700000810
:1000C0000348854600F082F800480047691500089B
:1000D000380400200448804704480047FEE7FEE754
:1000E000FEE7FEE7FEE7FEE7950D0008C100000809
:1000F00030B50B46014600202022012409E00D46C0
:10010000D5409D4205D31D469540491B2546954047
:1001100040191546521E002DF1DC30BDD2B201E06F
:100120000270401C491EFBD270470022F6E710B552
:1001300013460A4604461946FFF7F0FF204610BD55
:1001400070B5064600F0D4FE046805460A22002178
:10015000304600F003F82C6070BD0000F7B5009C3D
:100160000F4600262578641C002D05D000F040F8CD
:100170000068405DC007F5D12B2D02D02D2D18D081
:10018000641E39462046029A00F036F8002F04D04B
:100190003968A14201D10099396071050224002912
:1001A0000BDA4042002803DD00F0A2FE0460A00745
:1001B000FEBD012080020643E3E70028F8DA00F0E4
:1001C00097FE04600048FEBDFFFFFF7F064C01253F
:1001D000064E05E0E36807CC2B430C3C98471034EF
:1001E000B442F7D3FFF770FFA4190008C419000840
:1001F00000487047FC180008F7B582B0029C002741
:100200002078641C15460197302802D0002D15D0A7
:1002100015E020780127641C782804D0582802D0E3
:10022000002D09D00BE0002D01D0102D07D10027A3
:1002300010252078641C02E0082500E00A2500262D
:10024000009610E00099012769430818020C29461E
:1002500080B2714300908E183804864201D3012089
:1002600001902078641C294600F019F80028E9DA8A
:100270000398002805D0002F01D0641E00E0029CE6
:1002800004600198002806D000F032FE02210160CF
:10029000C81E05B0F0BD009930040843F9E73A28BC
:1002A00000D23038202302469A43412A01D3104617
:1002B0003738884201D30020C0437047F0B59E46CE
:1002C00094460E4605460923DB0628482849294F4F
:1002D000294A2A4C87B09D4202D16169C00125E0BC
:1002E000854208D16169012080040143616161692F
:1002F000014005910AE08D4208D161690120C004E6
:10030000014361616169014005910AE0BD4208D184
:100310006169012000050143616161690140059146
:100320000AE0954208D161690120400501436161FD
:1003300061690140059106E01148854203D1616978
:1003400001208005F2E760460190704602900C980B
:10035000039000966946284600F014F800223146C2
:10036000284600F0BBF807B0F0BD000000040048CC
:1003700000080048000C004800100048001002402F
:1003800000140048F8B5002393E0224601249C4065
:10039000A44622407ED04C68022C01D0122C0CD1F5
:1003A000DC08A40027183C6A5D07ED0E0F26AE405E
:1003B000B4430E69AE4026433E6205685E000324E6
:1003C000B4400F79A543BF07BF0FB7402F43076065
:1003D0004D68012D05D0022D03D0112D01D0122D15
:1003E0000ED18568CF68A543B7402F438760476823
:1003F0006546AF430D79ED06ED0F9D403D434560E9
:10040000C568A5438C68B4402C43C4604C68E400C4
:100410004ED52B4CA56901263543A561A4699D08DD
:1004200034400094274CAD002F19BC689D072E0F57
:100430000F25B540AC430925ED06A84201D10025A2
:1004400014E0214DA84201D101250FE01F4DA84223
:1004500001D102250AE01E4DA84201D1032505E085
:100460001C4DA84201D1042500E00525B5402543D7
:10047000BD60194C25684E689543F60300D51543B9
:10048000256065684E689543B60300D515436560E1
:10049000A56800E00CE04E689543F60200D51543D0
:1004A000A560E5684E689543B60200D51543E56042
:1004B0005B1C0A681446DA4000D066E7F8BD00000D
:1004C00000100240000001400004004800080048FD
:1004D000000C00480010004800040140002A01D030
:1004E0008161704781627047014800687047000071
:1004F0002800002002480168491C01607047000084
:100500002800002010B50648016810221143016040
:10051000002000F007F800F017F8002010BD0000E0
:100520000020024010B5044600F0D0F87D21C9003B
:10053000FFF7DEFD00F000FB00222146501E00F018
:1005400017F8002010BD000008B508488169012295
:1005500011438161816911400091C26901040A431C
:10056000C261C0690840009008BD00000010024050
:1005700010B500F0A9FB10BDF8B505464E480E4673
:100580000068C007C00FB0420AD24B480168490852
:100590004900314301600068C007C00FB04270D10C
:1005A0002878464C800705D56068F0218843A96803
:1005B000084360602878C00753D06868012817D0C6
:1005C000022818D0032819D021688907002958DA91
:1005D00061688908890001436160FFF785FF6968E8
:1005E0000746012913D002291DD0032927D034E062
:1005F00021688903EAE721688901E7E7616BC9039C
:10060000E4E7FFF771FFC11B2D48814223D86068E2
:100610000007800F0128F4D123E0FFF765FFC11B1D
:100620002748814217D860680007800F0228F4D15C
:1006300017E0FFF759FFC11B214881420BD86068C2
:100640000007800F0328F4D10BE0FFF74DFFC11B1B
:100650001B48814201D90320F8BD60680007800F64
:10066000F3D115480168C907C90FB1420BD9016818
:1006700049084900314301600068C007C00FB0421B
:1006800001D00120F8BD2878400706D56068072111
:1006900009028843E9680843606000F01DF861685A
:1006A000084A0906090F515CC84007490860002044
:1006B000FFF738FF0020F8BD002002400010024084
:1006C000881300006A1800082C0000200148006808
:1006D000704700002C00002030B516A30FCB89B066
:1006E0006C460FC417A30FCB0FC41A494A680C20DD
:1006F000144604401848042C05D0184B082C04D08C
:100700000C2C00D1184609B030BD9402240F6D4660
:100710002C5DC96A04AD0907090FD203695C920F09
:10072000022A02D0032A00D11846FFF7E1FC6043F9
:10073000E9E7000002030405060708090A0B0C0D8F
:100740000E0F10100102030405060708090A0B0C1E
:100750000D0E0F100010024000127A00006CDC0237
:10076000FEB504460078F04EF04DC00748D06868EA
:100770000007800F01281FD068680007800F02283B
:1007800004D16868C003800F022815D06168012970
:1007900019D001208004002901D0052917D029682B
:1007A000B1432960296881432960606800281BD013
:1007B000FFF79AFE074613E02868800320D560689B
:1007C000002876D01CE0286830432860EDE72968CF
:1007D00001432960F7E7FFF787FEC01B642869D84B
:1007E00028688003F7D50BE0FFF77EFE074604E09C
:1007F000FFF77AFEC01B6428F1D828688003F7D47D
:10080000207880073ED568680007800F14D068689C
:100810000007800F022804D16868C003800F0128F8
:100820000AD0E068002828681DD00121084328600C
:10083000FFF75AFE07460BE0286880070BD5E068F3
:10084000012836D107E0FFF74FFEC01B0228C6D8AB
:1008500028688007F7D52868F82188432169C900EE
:10086000084328600EE0400840002860FFF73CFE87
:10087000074604E0FFF738FEC01B0228AFD82868FF
:100880008007F7D42078000724D5E0690028686A3B
:1008900011D0012108436862FFF726FE074604E0F5
:1008A000FFF722FEC01B022899D8686A8007F7D597
:1008B00010E036E1D1E0400840006862FFF714FE26
:1008C000074604E0FFF710FEC01B022887D8686ABD
:1008D0008007F7D4207804274007002861DA002039
:1008E0000190E869C00008D4E969B8060143E961EC
:1008F000E96901400120009101908D480168C90516
:1009000011D40168821511430160FFF7EDFD0090DD
:1009100005E0FFF7E9FD0099401A642897D884485C
:100920000068C005F5D5A06801280AD0002801D0CC
:10093000052811D0286A400840002862286AB84378
:1009400002E0286A012108432862A068002812D02A
:10095000FFF7CAFD00900AE0286A38432862F0E7F2
:10096000FFF7C2FD0099411A7248814275D8286A82
:100970008007F5D50DE0FFF7B7FD009006E0FFF723
:10098000B3FD0099411A6B48814266D8286A8007F6
:10099000F5D40198002804D0E969012000078143BB
:1009A000E9612078C00635D5606901280CD0401D6A
:1009B000686B24D038436863686B40084000686304
:1009C000FFF792FD074622E0686B38436863686B67
:1009D000012108436863FFF787FD074604E0FFF73E
:1009E00083FDC01B022838D8686B8007F7D5686B79
:1009F000F8218843A169C900084368630AE0B84345
:100A00006863F4E7FFF770FDC01B022825D8686B08
:100A10008007F7D42078800637D568680007800FF4
:100A2000032813D068680007800F022804D1686883
:100A3000C003800F032809D0206A0028686B16D0F5
:100A400030436863FFF750FD06460CE0686BC00357
:100A50001BD5206A012864D117E05BE0FFF744FD55
:100A6000801B022856D8686BC003F7D50DE0B04351
:100A70006863FFF739FD064604E0FFF735FD801B8C
:100A8000022847D8686BC003F7D4606A002846D0B4
:100A900069680907890F022943D001263606022812
:100AA000286805D0B0432860FFF71EFD044633E0F8
:100AB000B0432860FFF718FD074604E0FFF714FD78
:100AC000C01B022826D828688001F7D4E86A216B69
:100AD000000900010843E862A16AE06A0843696806
:100AE0007B22D20391430843686028683043286022
:100AF000FFF7FAFC044604E0FFF7F6FC001B0228AF
:100B000008D828688001F7D509E0FFF7EDFC001B45
:100B1000022801D90320FEBD28688001F5D40020F9
:100B2000FEBD0120FEBD00000000010000100240DB
:100B30000070004088130000094910B5401E88422B
:100B400001D9012010BD074C60610321081F00F08E
:100B5000BBF80020A06107202061002010BD00002C
:100B6000FFFFFF0000E000E0FEE7000070B5314845
:100B7000C16901239B051943C1612F4801681122F6
:100B8000D2051143016041680522D2021143416040
:100B9000416A9A1211434162416A052212051143CA
:100BA0004162016886043143016024490C680122D6
:100BB00014430C6044689503AC4344604C68944310
:100BC0004C6044692C4344614869104348611C4CA3
:100BD0002069304320612069132108432061206986
:100BE0000F21090208432061206951040843206154
:100BF00020691843206120681043206002210020F2
:100C000000F086F8A0698007FCD5A069C006F9D479
:100C10002020A062A0698007FCD5A069C006F9D495
:100C20000B20A062A0694006FCD560682843606084
:100C300070BD000000100240000400480008004899
:100C4000005800400C4841690122D204114341611F
:100C50000A480268552109030A43026042680F23CB
:100C60009B019A43426082688A438260C168FF2286
:100C700012039143C1607047001002400008004811
:100C8000704700008307FF22DB0E9A408907090E98
:100C9000994000280BDA0007000F0838830808483D
:100CA0009B001818C36993430B43C36170478308C3
:100CB00004489B001B18186890430843186070474D
:100CC00000ED00E000E400E08307FF22DB0E9A4025
:100CD0008907090E994000280BDA0007000F083831
:100CE000830808489B001818C36993430B43C361EA
:100CF0007047830804489B001B18186890430843FA
:100D00001860704700ED00E000E400E070477047B5
:100D100010B50C4A53680C4C2340536053680904C7
:100D2000D62421430B43536011150028506801D08D
:100D3000084300E08843506050680121490308439C
:100D4000506010BD0058004000FC00FF10B5FFF7D8
:100D5000D1FB10BD10B592B034216846FFF7E5F91C
:100D600000240F94022000900D9401200E94039013
:100D700010200994049010946846FFF7F1FC0720B6
:100D80000D900E940F94002110940DA8FFF7F4FB22
:100D900012B010BD12480168012211430160416880
:100DA000104A1140416001680F4A1140016001681A
:100DB000012292049143016041683F221204914351
:100DC0004160C16A09090901C162016B074A11400A
:100DD0000163416B4908490041630021816070470C
:100DE000001002400CB8FF08FFFFF6FE2CFEFCFFCF
:100DF00010B500F047FC034801694908490001614A
:100E000010BD00000010004010B50C48C169102250
:100E10001143C1610A48012181620A4AC262C26863
:100E20000A43C26002680A4302600749401308602F
:100E300002211120FFF726FF10BD00000010024024
:100E4000001000407C92000000E100E000B500F0DE
:100E5000E3FC024908700120487000BD000000203A
:100E600010B51548C169012292041143C1611348AC
:100E700001680522520211430160016A1122120425
:100E800011430162016A7722520491430162FFF724
:100E90001DFC4B21C901FFF72BF90949C8600868FF
:100EA0002D221043086088040649086001211D2096
:100EB000FFF7E8FE10BD00000010024000080048E7
:100EC0000048004000E100E00FB410B504A9074B52
:100ED00002AA039800F020F8044602A9002000F0BE
:100EE000C3F8204610BC08BC04B0184769100008BD
:100EF000004870473000002002E008C8121F08C1F7
:100F0000002AFAD170477047002001E001C1121F8A
:100F1000002AFBD170470000FFB58DB004460025C4
:100F200006E025280AD0109A0F999047641C6D1C82
:100F300020780028F5D1284611B0F0BD0027012106
:100F4000484A009700E00743641C23780846203B8A
:100F500098401042F7D120782E2817D1042007435B
:100F60006078641C2A280CD10E98641C02C8009179
:100F70000E900BE000990A22514330394018641C4E
:100F800000902078014630390929F3D920780028CB
:100F9000D1D0642808D0692806D075281ED0109AB0
:100FA0000F9990476D1C5BE00A200E99019001C9D2
:100FB0000E91002802DA40422D2102E0390504D5C5
:100FC0002B216A461172012103E0F90704D0202188
:100FD000F7E70BAE0B910DE00021FAE70A200E991E
:100FE000019001C90E91F7E70199FFF781F83031BF
:100FF000761E31700028F7D103A8801B20300190A5
:10100000780701D5009801E00120009001998842FD
:1010100001DD401A00E000200027009006E002A851
:10102000109AC05D0F9990476D1C7F1C0B988742EA
:10103000F5DB04E0109A30200F9990476D1C009961
:10104000481E00900029F5DC05E03078109A761CE7
:101050000F9990476D1C0199481E01900029F4DCFE
:10106000641C65E7092801000A68531C0B601070B6
:1010700070470000F8B500F077F90126464F0025CB
:10108000464C2DE046A000F0E5FB60780028FCD03F
:10109000657020783E2861D00EDC2B2839D006DC24
:1010A0000A281DD00D281BD0202813D166E02D283A
:1010B00029D03C280ED14BE0722867D006DC61288D
:1010C0003CD0642835D0652804D159E0732813D06A
:1010D00077280CD033A000F0BDFB207800F0B0FBE7
:1010E00020780A2802D020780D28CBD1F8BD34A072
:1010F00000F0B0FB667203E03AA000F0ABFB657253
:10110000627A202120E042A000F0A4FBE0890A30AE
:101110000DE00E20205E0A2804D546A000F09AFBC0
:10112000E581DDE74BA000F095FBE0890A38E0811E
:10113000D6E751A000F08EFBA67203E057A000F0A6
:1011400089FBA572A27A8021384600F071FBC7E7BF
:101150005DA000F07FFB208A0A300DE01020205EA9
:101160000A2804D561A000F075FB2582B8E767A0C6
:1011700000F070FB208A0A382082B1E76CA006E0FC
:1011800070A000F067FBA670E670A9E772A000F0FF
:1011900061FBA570E570A3E7000400480000002093
:1011A0000A0D000009556E7265636F676E697A6596
:1011B00064204368617261637465723A20000000C4
:1011C00009526F6C6C20646972656374696F6E207C
:1011D0006973206E6F7720636C6F636B77697365DB
:1011E0002100000009526F6C6C20646972656374A1
:1011F000696F6E206973206E6F7720636F756E74F0
:1012000065722D636C6F636B7769736521000000F5
:1012100009526F6C6C20737065656420646563723D
:101220006561736564206279203120756E69742E62
:1012300000000000094D6178696D756D20726F6C5A
:101240006C207370656564206163686965766564A8
:101250002E00000009526F6C6C207370656564206D
:10126000696E6372656173656420627920312075EF
:101270006E69742E00000000095069746368206470
:101280006972656374696F6E206973206E6F772071
:10129000636C6F636B776973652100000950697433
:1012A000636820646972656374696F6E2069732076
:1012B0006E6F7720636F756E7465722D636C6F63EC
:1012C0006B77697365210000095069746368207346
:1012D000706565642064656372656173656420622E
:1012E00079203120756E69742E000000094D6178F7
:1012F000696D756D207069746368207370656564CD
:101300002061636869657665642E00000950697420
:10131000636820737065656420696E6372656173CC
:101320006564206279203120756E69742E0000009A
:101330000953746F7070696E67206D6F746F72738C
:101340002100000009456E61626C696E67204D6F77
:10135000746F727321000000095265736574696EC1
:101360006720616C6C21000000B50C480021017001
:1013700041708161C1610AA000F06CFA094800F077
:1013800069FA07A000F066FA074800F063FA04A0C3
:1013900000F060FA05A000F05DFA00BD000000203A
:1013A0000A0D000000190008501900085B725D5218
:1013B0006573657409095B655D456E61626C6520E6
:1013C0004D6F746F727309095B53706163655D5390
:1013D000746F7009095B456E7465725D3D4578698F
:1013E00074000000F0B5E9B000F082F8354C00253B
:1013F0006570257002AE1BAF5FE0657060780028F5
:10140000FCD0207800F01CFA20780D2802D020783B
:101410007128F2D12CA000F01DFA06E0657060780A
:101420000028FCD0207800F00BFA20780A2802D09F
:1014300020787128F2D127A000F00CFA00230EE0EA
:10144000657060780028FCD020782C2806D02078A1
:1014500000F0F6F92078F0545B1C00E0F554207899
:101460002C28EDD100230EE0657060780028FCD0B8
:1014700020780D2806D0207800F0E2F92078F85482
:101480005B1C00E0FD5420780D28EDD10EA000F08B
:10149000E1F91BA8FEF754FE019002A8FEF750FEEA
:1014A000024610A134A8019BFFF70EFD34A800F0FE
:1014B000D1F9657060780028FCD020787128A3D11C
:1014C00069B0F0BD00000020676F74204352210D09
:1014D0000A000000676F74206E65776C696E652185
:1014E0000D0A00002D2D3E25642C25640D0A0000F8
:1014F00000B50B480021017041708161C16109A0F4
:1015000000F0A8F908A000F0A5F906A000F0A2F9E3
:1015100010A000F09FF903A000F09CF900BD0000AE
:10152000000000200A0D000052656164696E6720AA
:10153000526F6C6C20616E6420506974636820285F
:101540005072657373207120746F207175697429EE
:1015500000000000466F726D61743A20526F6C6C2F
:101560002C5069746368000008B5FEF7CBFFFFF7E5
:10157000F1FB00200346FF2100900122E1310748E2
:10158000FEF79CFEFFF75EFBFFF7F0FAFFF768FC43
:10159000FFF73AFC00F004F8FCE700000004004804
:1015A00010B500F03DF8104800214278002AFCD028
:1015B0008161C16102780D2AF7D0612A0AD0622ABE
:1015C000F3D1007800F03CF908A000F043F9FFF7F0
:1015D00009FF10BD007800F033F90BA000F03AF9D4
:1015E000FFF748FD10BD00000000002009466C69AF
:1015F0006768742047656172206D6F64652073654C
:101600006C65637465640000094465627567206DEC
:101610006F64652073656C65637465640000000029
:1016200000B509A000F016F90BA000F013F90FA007
:1016300000F010F911A000F00DF9114800214170DF
:1016400001700121817100BD0A0D0953454C4543CC
:1016500054204D4F444500000A0D5B615D2009098F
:101660004445425547204D6F646500000A0D5B629A
:101670005D2009094647204D6F6465000A0D000092
:1016800000000020F0B589B001210020FFF740FBE9
:101690005B4CA0698007FCD5A069C006F9D4A820DE
:1016A000A062A0694006FCD502210120FFF730FBB3
:1016B000A0694007FCD5A069C006F9D4606A514D05
:1016C000E872A0694007FCD5A069C006F9D4A069FA
:1016D0004006FCD5606AE871E879E97A00020843BF
:1016E000A88201210020FFF713FBA0698007FCD529
:1016F000A069C006F9D4AA20A062A0694006FCD562
:1017000002210120FFF704FBA0694007FCD5A06976
:10171000C006F9D4606A2873A0694007FCD5A069A7
:10172000C006F9D4A0694006FCD5606A2872287A00
:10173000297B0002084368821421695E324E012031
:101740004002324CB14261690EDD014361611422F5
:10175000AA5E2FA104A8FFF7B7FB2EA000F07AF82D
:1017600004A800F077F801E0814361611421695E0B
:10177000254FFF207F420130B94261690EDA0143F3
:1017800061611422AA5E22A104A8FFF79DFB21A09B
:1017900000F060F804A800F05DF801E081436161A9
:1017A0001221695E4020B14261690EDD0143616131
:1017B0001222AA5E16A16846FFF786FB15A000F06C
:1017C00049F8684600F046F801E081436161122162
:1017D000695E8020B94261690FDA014361611222BA
:1017E000AA5E0BA16846FFF76FFB0AA000F032F873
:1017F000684600F02FF809B0F0BD81436161FAE757
:101800000058004000000020881300000008004835
:10181000256400000A0D09000448C1698906FCD549
:10182000024820308088C0B2704700000048004065
:1018300010B5002A00D00122FEF750FE10BD0000B6
:101840000349CA691206FCD5014920310881704755
:101850000048004010B50446002302E0FFF7F0FF07
:101860005B1CE05C0028F9D110BD00000000000006
:101870000000010203040607080900404040404000
:101880004040404041414141414040404040404053
:10189000404040404040404040404005020202027B
:1018A0000202020202020202020202202020202082
:1018B000202020202002020202020202909090903A
:1018C0009090101010101010101010101010101018
:1018D000101010101010020202020202888888887C
:1018E0008888080808080808080808080808080878
:1018F0000808080808080202020240007B180008D5
:101900005B775D526F6C6C20636C6F636B77697390
:1019100065095B735D526F6C6C20636F756E7465E7
:10192000722D636C6F636B77697365095B2D5D4422
:101930006563726561736520726F6C6C095B2B5D0A
:10194000496E63726561736520726F6C6C3B000059
:101950005B645D506974636820636C6F636B776967
:101960007365095B615D506974636820636F7574AA
:101970006E65722D636C6F636B77697365095B3C91
:101980005D4465637265617365207069746368099D
:101990005B3E5D496E637265617365207069746357
:1019A00068000000C4190008000000203400000096
:1019B000F80E0008F81900083400002004040000A4
:1019C000080F0008000000000000010000010000F6
:1019D00000000A000A0000000000000000000000F3
:1019E00000000000000000000000000000000000F7
:0819F00000127A000000000063
:04000005080000C12E
:00000001FF
