:020000040800F2
:1000000068090020D5000008151C00088D1B000899
:1000100000000000000000000000000000000000E0
:10002000000000000000000000000000A31C000809
:100030000000000000000000A11C0008A51C000832
:10004000E7000008E7000008E7000008E7000008F4
:10005000E7000008E7000008E7000008E7000008E4
:10006000E7000008E7000008E7000008E7000008D4
:10007000E7000008E7000008E7000008E7000008C4
:10008000E7000008491D0008E7000008E700000835
:10009000E7000008E7000008E7000008E7000008A4
:1000A000E7000008E7000008E7000008591D000805
:1000B000E7000008051E0008E7000008E700000848
:1000C0000348854600F070FB00480047992B000864
:1000D000680900200448804704480047FEE7FEE71F
:1000E000FEE7FEE7FEE7FEE7ED1C0008C1000008A2
:1000F00030B50B46014600202022012409E00D46C0
:10010000D5409D4205D31D469540491B2546954047
:1001100040191546521E002DF1DC30BD70B500248B
:100120002546002801DA01244042002901DA012590
:100130004942FFF7DDFFAC4200D04042002C00D026
:10014000494270BD10B5202A04DB0846203AD04051
:10015000002110BD0B46D340D0402024A21A91406C
:100160000843194610BD03460B439B0703D009E023
:1001700008C9121F08C0042AFAD203E00B780370E2
:10018000401C491C521EF9D27047D2B201E00270E5
:10019000401C491EFBD270470022F6E710B51346FB
:1001A0000A4604461946FFF7F0FF204610BDF8B591
:1001B00002464A40D40F42004B0052085B089A4264
:1001C00002D20246084611464A0023D0C30D4A0017
:1001D000DDB2120EAD1A202D35DA49020126490A88
:1001E000F6058A19002C00D0524220214F1B1146DF
:1001F000B9402A411018C20D9A4221D0002C17D0C4
:10020000012D08DCDA05801AD20F8019D207DBB283
:1002100000F0CBF8F8BDDA05801A012340001B0678
:10022000C01880185A428018CA0F1043490007E0CE
:100230004908C2071143DA05801A8019400880185E
:1002400000F0ABF8F8BD61000122511A001BF7E77E
:100250000122D2075140AAE70122D2075040A6E767
:10026000024670B54A40D30FDB0740002DD04A004C
:100270002AD0010E140E000212020919400A520A75
:100280008418E50104465443000A120A2E04504320
:10029000A4194219200CC543AA18120C0125AD035C
:1002A000521C521912047F39240400D0521C1043EE
:1002B00001D44000491EC2B20C06C0092018401CDF
:1002C0004008802A02D003E0002070BD40084000B2
:1002D000002900DA0020184370BD420005D042001A
:1002E000120E52428A4201DB00207047C9050818ED
:1002F0007047C217C10F504010B54018CA07962367
:10030000002100F052F810BDC20F4100400201234D
:10031000400ADB05D207090EC0187F2901DA002048
:100320007047962903DC9623591AC84001E0963994
:100330008840002AF4D040427047F0B51FB406460A
:10034000002082B005464024019100901BE00199F5
:1003500022460F463046FFF7F5FE049A059B801AA9
:10036000994110D310461946224600F02FFA361A4A
:100370008F410197224601200021009F00F026FABC
:1003800038184D4100902046641E0028DFDC019B98
:1003900000982946324607B0F0BD002904DA401C17
:1003A000490001D140084000704770B40024050C9A
:1003B00005D11024000402D1002921D01124050EFA
:1003C00001D100020834050F01D10001241D850F61
:1003D00001D18000A41C002801DB4000641C00291E
:1003E00008D020252E1B0D46F540A14000D001214C
:1003F0002943084301061B1B000ADB1D02D5002010
:1004000070BC7047DB05181880180029F8DA401C0A
:100410004900F5D170BC400840007047F0B5074670
:100420000846584087B0C00F049048000E46590057
:1004300040084908BC1A884105D2384631461E4654
:1004400017460B4602465800400810434CD0300D6A
:10045000039040055900400D490D0590401A029047
:10046000402872DA18030121000B090508430190A6
:1004700004980092002805D001995242002088413A
:1004800000920190029840210A1A0199009800F008
:100490009DF905460C466B4607CB00F0A7F9C0193D
:1004A0007141039A0E0D0023D71756401A467A4021
:1004B000164344D0049A002A2DD0029A012A039AA6
:1004C00015DC1205C01A914101263605001C714148
:1004D000D20F059ED2070093019202962A46234628
:1004E00000F0A4F907B0F0BD38463146FAE716052A
:1004F000224A0F46B218C01AB74101210905001C53
:100500004F4100187F41114618187941E20F1043FE
:100510006D19644113E0E2076D0815436408C207D2
:100520001443039A01261205C01A91413605001C96
:100530007141CE07400830434908C01851412A464E
:10054000234600F066F9CDE7FFE70498012240005A
:10055000C117121A00238B4104983146C417381A68
:10056000A141EEE730B40124E407634030BC55E715
:1005700030B40124E407614030BC4FE70000E0FFE5
:10058000F0B51FB488B00B99099800244840099928
:10059000C00F490049080991C0070B990090490014
:1005A00049080B9109990898A64608431CD00B9955
:1005B0000A98084318D0099801244000420D4800C9
:1005C000410D099824050003000B204309900B9866
:1005D0000003000B20430B9050181C4940180022C8
:1005E00001901446104605E0002001460DB0F0BD14
:1005F000032801DA034600E003239C46C11A0AAE31
:100600000AE05F0008ADED5B4F00F75B7D4300271C
:10061000AA187C41491C5B1E6145F2DD410004AB18
:100620005A522104120C0A43240C401C0828DFDB18
:10063000019802900099704601910090059B049AE0
:100640000799069800F0F2F8D0E700000DFCFFFFD4
:10065000F0B50C465C4085B0E40FE40703944C0011
:10066000002664085900944649080246029622432F
:1006700021D062460A431ED06200570D4A000E0385
:100680002303550D012402462C492405781B1B0B1E
:10069000360B401823432643614600901C46501AEF
:1006A000B44103D30098401C009002E092180098D7
:1006B0005B41002803DA0020014605B0F0BD0020B0
:1006C000012109050746864611E064461D46141BB4
:1006D000B54106D36546521BB341744607430C43EC
:1006E000A646CD0740084908284392185B410546B5
:1006F0000D43EAD11046184313D0604619465040C6
:100700007140084306D06046101AB34106D2012258
:10071000002306E000220123DB0702E00122D2438E
:100720005310009874460105381C6141029C039DDA
:100730000019694100F06DF8BFE70000FD030000FB
:100740004A0009030123090B1B0519430A4B10B585
:10075000520D9A4202DA0020014610BD064B343396
:100760009A4203DC9A1AFFF7EDFC10BD034BD21836
:1007700000F02CF810BD0000FF030000CDFBFFFFD0
:1007800010B5002904DB0124E40740428C412146D6
:10079000002B04DB1C460123DB075242A341994294
:1007A00000D1904210BD0000064C0125064E05E028
:1007B000E36807CC2B430C3C98471034B442F7D382
:1007C000FFF782FC003200082032000810B5202A12
:1007D00004DB0146203A9140002010BD91402023C7
:1007E0009C1A0346E3401943904010BD10B5202ADF
:1007F00006DBCB170846203A1041C1170B4306E031
:100800000B461341D0402024A21A914008431946B8
:1008100010BD10B5002B08DA0024401C614192186D
:100820005B411A4301D14008400010BDF0B51FB430
:1008300082B005460C0003D0084601F05BFB02E0E5
:1008400001F058FB20300246009021462846FFF771
:10085000BDFF049B059A04460F4618431143084305
:1008600014D0184610431BD0009840210A1A18468D
:100870000599FFF767FC05460E46009A059904980E
:10088000FFF7A4FF084305D0012004E020463946C5
:1008900007B0F0BD0020C11705430E432C4337437A
:1008A00000990E986305401A7905E40A00220C436A
:1008B000FD0A0A3002D500200146E9E701051019BA
:1008C00069410C9C0D9D00196941FFF7A2FFDFE70C
:1008D00010B502F047F910BD70B5FAA002F0DAF9D0
:1008E00001F048FAFE4CAA21204602F0C5FA012187
:1008F000204602F0C1FA3621204602F0BDFA01215D
:10090000204602F0B9FA642000F040FD01F06AFAD6
:10091000002803D102F0E2F90F28E4D1AA212046F1
:1009200002F0AAFA0121204602F0A6FA412120464F
:1009300002F0A2FA0121204602F09EFA642000F0A3
:1009400025FD01F04FFA0028E8D0E6A002F0A2F958
:1009500002F0C4F90325AA21204602F08DFA0021F5
:10096000204602F089FA0721204602F085FA01218B
:10097000204602F081FA0021204602F07DFA642030
:1009800000F004FD6D1E03D001F034FA0028E2D01F
:10099000AA21204602F070FA0121204602F06CFAEA
:1009A0003E21204602F068FA0121204602F064FA56
:1009B000642000F0EBFC01F015FA0028E8D0D1A08B
:1009C00002F068F902F08AF9002820D0D6A002F0DF
:1009D00061F90325AA21204602F04EFA00212046A3
:1009E00002F04AFA3E21204602F046FA0121204652
:1009F00002F042FA0021204602F03EFA642000F0A4
:100A0000C5FC6D1E03D001F0F5F90028E2D00325E6
:100A1000AA21204602F030FA0021204602F02CFAEA
:100A20003D21204602F028FA0121204602F024FA56
:100A30000021204602F020FA642000F0A7FC6D1E81
:100A400003D001F0D7F90028E2D00325AA212046DF
:100A500002F012FA0021204602F00EFA412120464F
:100A600002F00AFA0121204602F006FA242120466B
:100A700002F002FA642000F089FC6D1E03D001F040
:100A8000B9F90028E2D00325AA21204602F0F4F9A2
:100A90000021204602F0F0F94221204602F0ECF954
:100AA0000121204602F0E8F90421204602F0E4F991
:100AB000642000F06BFC6D1E03D001F09BF9002850
:100AC000E2D0AA21204602F0D7F90121204602F007
:100AD000D3F93D21204602F0CFF90121204602F052
:100AE000CBF9642000F052FC01F07CF90028E8D03A
:100AF00095A002F0CFF802F0F1F80C2820D09CA0CD
:100B000002F0C8F80325AA21204602F0B5F9002119
:100B1000204602F0B1F93D21204602F0ADF9012155
:100B2000204602F0A9F90C21204602F0A5F9642024
:100B300000F02CFC6D1E03D001F05CF90028E2D01F
:100B4000AA21204602F098F90121204602F094F9EA
:100B50003B21204602F090F90121204602F08CF959
:100B6000642000F013FC01F03DF90028E8D089A0D2
:100B700002F090F802F0B2F84007C017401C20D1F4
:100B80008EA002F087F80325AA21204602F074F90E
:100B90000021204602F070F93B21204602F06CF95A
:100BA0000121204602F068F90021204602F064F994
:100BB000642000F0EBFB6D1E03D001F01BF9002850
:100BC000E2D0874802F066F886A002F063F8AA2116
:100BD000204602F051F90121204602F04DF935215D
:100BE000204602F049F90121204602F045F964202F
:100BF00000F0CCFB01F0F6F80028E8D002F06EF827
:100C0000C0438006800FE2D17EA002F043F8864800
:100C100002F040F885A002F03DF8AA21204602F03B
:100C20002BF90121204602F027F93521204602F058
:100C300023F90121204602F01FF9642000F0A6FBF1
:100C400001F0D0F80028E8D002F048F8C0430007CF
:100C5000800FE2D17EA002F01DF8874802F01AF85A
:100C600086A002F017F8AA21204602F005F901211A
:100C7000204602F001F93521204602F0FDF801215D
:100C8000204602F0F9F8642000F080FB01F0AAF899
:100C90000028E8D002F022F8C0438007E3D180A00A
:100CA00001F0F8FF88A001F0F5FFAA21204602F02C
:100CB000E3F80121204602F0DFF83521204602F05A
:100CC000DBF817E1496E697469616C697A696E676E
:100CD00020424E4F3035352E2E2E0D0A00000000DA
:100CE0000038014044656661756C742061786973F1
:100CF00020616C72656164792064656661756C74ED
:100D00002E0D0A00506F776572206D6F646520614B
:100D10006C72656164792073657420746F204E4F26
:100D2000524D414C2E0D0A0053657474696E672054
:100D3000746F204E4F524D414C20706F776572207A
:100D40006D6F64652E0D0A004F7065726174696F76
:100D50006E206D6F646520616C72656164792073CB
:100D6000657420746F204E444F462E0D0A0000001B
:100D700053657474696E6720746F204E444F46202B
:100D80006F7065726174696F6E206D6F64652E0D92
:100D90000A0000004F757470757420756E69747365
:100DA00020616C72656164792073657420746F20B2
:100DB000444547524545532E0D0A0000536574744F
:100DC000696E6720746F2044454752454553206F34
:100DD000757470757420756E6974732E0D0A000039
:100DE000A83100084779726F73636F70652069736B
:100DF0002063616C6962726174696E672E2E2E0DBC
:100E00000A0000004779726F73636F706520436159
:100E10006C6962726174696F6E20636F6D706C656E
:100E20007465210D0A000000FC3000084163636511
:100E30006C65726F6D657465722069732063616C97
:100E40006962726174696E672E2E2E0D0A000000B1
:100E5000416363656C65726F6D6574657220436193
:100E60006C6962726174696F6E20636F6D706C651E
:100E70007465210D0A000000803000084D61676E26
:100E800065746F6D657465722069732063616C6948
:100E900062726174696E672E2E2E0D0A00000000CA
:100EA0004D61676E65746F6D657465722043616C2A
:100EB0006962726174696F6E20636F6D706C6574C6
:100EC00065210D0A00000000566572696679696E39
:100ED000672073797374656D2063616C69627261F8
:100EE00074696F6E207374617475732E2E2E0D0AE3
:100EF000000000000121204601F0BEFF642000F048
:100F000045FA00F06FFF002800D1CEE601F0E6FEC2
:100F1000C0430006800F04D001F0E0FEC04380060D
:100F2000F3D103A001F0B6FE09A001F0B3FE70BD3D
:100F300053797374656D2043616C69627261746981
:100F40006F6E20636F6D706C657465210D0A000013
:100F5000424E4F30353520496E697469616C697A4B
:100F60006174696F6E20616E642043616C696272A6
:100F70006174696F6E20436F6D706C657465210AD2
:100F80000000000010B501F001FE10BD10B50C4CC2
:100F9000AA21204601F070FF0121204601F06CFFDC
:100FA0001A21204601F068FF0621204601F064FF67
:100FB0000A2000F0EBF900F015FF0028E8D010BD82
:100FC000003801400849097800290AD08103064AFF
:100FD000490EB03A515C4005400FC140C807C00FF0
:100FE000704700207047000040050020F8B50C4E07
:100FF00035461835B76900F0F7F80446EFF310826C
:1010000072B629682860002A00D162B6B942F1D1CF
:101010008C4203D20248103001F070FC2046F8BD2B
:1010200040050020FEB514460E00054601D0802C78
:1010300001D90020FEBDFFF7C5FF00280AD0FFF749
:10104000D5FF0090A8B2EFF30581002904D0012557
:10105000ED0402E00120FEBD00250543002C0FD069
:10106000082C12D80020019002902246314601A897
:10107000FFF779F86007400B2843032109063EE09B
:1010800000231A46284600993CE000F071F9400719
:10109000470B0822314601A8FFF765F828460121D1
:1010A00038430906084369460EC9083C083600F073
:1010B0002FF80028CFD015483D4605430EE0082202
:1010C000314601A8FFF74FF86F460ECF2846083C7F
:1010D000083600F01DF86D1C0028BCD0082CEED896
:1010E0000020019002902246314601A8FFF73BF80C
:1010F000FF200002854320022843012149060843BE
:101100006F460ECF00F004F8FEBD000001FF0000A6
:10111000FFB581B002980724C008000F00070090B7
:1011200003988008460F049876074008850FAD079E
:101130002B4801F0E3FB81068A0D2A4980095218E9
:1011400000070199000A014300980143314303203D
:10115000294380060143EFF3108372B6D06847013C
:1011600004D4C00FC0070843D06000E00020002B6B
:1011700000D162B641012BD5012189064840029B6E
:10118000490148405B0001405B080B431360039B2F
:101190005B005B080B435360049B5B005B080B43E5
:1011A000EFF31081936072B6D3685B0103D5D06012
:1011B000002903D003E0002908D00BE062B60848FC
:1011C000001D01F09BFB012005B0F0BD62B601E0FF
:1011D000641EADD10248083001F090FB0020F3E717
:1011E000440500209000002002490868421C0A6063
:1011F000704700008000002038B50BA000F056FEBC
:101200000024234601220C210E48009400F02EF801
:1012100005210023012289020B48009400F026F8E2
:101220000AA000F043FE38BD496E697469616C69BB
:101230007A6174696F6E204750494F732E2E2E0AC3
:101240000000000000040048000800484750494FD3
:1012500020496E697469616C697A6174696F6E2086
:10126000436F6D706C657465210A0000F0B5394DEF
:101270000F4606462978384C012087B09E46944692
:1012800000290BD10921C9068E4207D162694104A8
:101290000A43626162690A400592287069780029F0
:1012A0000AD12E498E4207D1626909020A4362615E
:1012B00062690A4005926870A97800290AD1284914
:1012C0008E4207D1626909020A43626162690A407B
:1012D0000592A870E97800290BD122498E4208D1E5
:1012E0006269012109050A43626162690A40059247
:1012F000E87018492B791C4A4979002B0BD11B4BFC
:101300009E4208D1626959020A43626162690A40D9
:10131000059228710CE000290AD1964208D1626931
:10132000012189050A43626162690A400592687178
:1013300060460190704602900C98039000976946B1
:10134000304600F031F800223946304600F0D8F837
:1013500007B0F0BD0000002000100240000400486B
:1013600000080048000C0048001400480010004825
:101370000549EFF3108272B64878431C4B70002A7F
:1013800000D162B6704700004005002031B500F082
:10139000BDF8009C0546601C00D0641C00F0B6F847
:1013A000401BA042FAD338BDF8B5002393E0224693
:1013B00001249C40A44622407ED04C68022C01D0DF
:1013C000122C0CD1DC08A40027183C6A5D07ED0E36
:1013D0000F26AE40B4430E69AE4026433E62056818
:1013E0005E000324B4400F79A543BF07BF0FB74089
:1013F0002F4307604D68012D05D0022D03D0112D1C
:1014000001D0122D0ED18568CF68A543B7402F4378
:10141000876047686546AF430D79ED06ED0F9D4047
:101420003D434560C568A5438C68B4402C43C46007
:101430004C68E4004ED52B4CA56901263543A561C7
:10144000A4699D0834400094274CAD002F19BC6856
:101450009D072E0F0F25B540AC430925ED06A84288
:1014600001D1002514E0214DA84201D101250FE052
:101470001F4DA84201D102250AE01E4DA84201D10C
:10148000032505E01C4DA84201D1042500E00525F7
:10149000B5402543BD60194C25684E689543F60359
:1014A00000D51543256065684E689543B60300D5A1
:1014B00015436560A56800E00CE04E689543F602B0
:1014C00000D51543A560E5684E689543B60200D582
:1014D0001543E5605B1C0A681446DA4000D066E7F5
:1014E000F8BD000000100240000001400004004868
:1014F00000080048000C00480010004800040140AB
:10150000002A01D0816170478162704701480068FC
:10151000704700005800002002480168491C016023
:10152000704700005800002010B5064801681022DE
:1015300011430160002000F007F800F017F80020C8
:1015400010BD00000020024010B5044600F0D0F8A5
:101550007D21C900FEF7CCFD00F000FB00222146F2
:10156000501E00F017F8002010BD000008B5084814
:101570008169012211438161816911400091C26931
:1015800001040A43C261C0690840009008BD000020
:101590000010024010B500F061FB10BDF8B5054623
:1015A0004E480E460068C007C00FB0420AD24B48F2
:1015B000016849084900314301600068C007C00F55
:1015C000B04270D12878464C800705D56068F0217C
:1015D0008843A968084360602878C00753D06868CA
:1015E000012817D0022818D0032819D021688907AC
:1015F000002958DA61688908890001436160FFF7B2
:1016000085FF69680746012913D002291DD00329E7
:1016100027D034E021688903EAE721688901E7E7F8
:10162000616BC903E4E7FFF771FFC11B2D488142DD
:1016300023D860680007800F0128F4D123E0FFF76A
:1016400065FFC11B2748814217D860680007800FDB
:101650000228F4D117E0FFF759FFC11B214881424E
:101660000BD860680007800F0328F4D10BE0FFF768
:101670004DFFC11B1B48814201D90320F8BD6068A2
:101680000007800FF3D115480168C907C90FB1429F
:101690000BD9016849084900314301600068C0075F
:1016A000C00FB04201D00120F8BD2878400706D510
:1016B0006068072109028843E9680843606000F018
:1016C0001DF86168084A0906090F515CC8400749BE
:1016D00008600020FFF738FF0020F8BD002002401E
:1016E0000010024088130000103000085C00002049
:1016F00001480068704700005C00002030B516A368
:101700000FCB89B06C460FC417A30FCB0FC41A4977
:101710004A680C20144604401848042C05D0184B85
:10172000082C04D00C2C00D1184609B030BD94020E
:10173000240F6D462C5DC96A04AD0907090FD20359
:10174000695C920F022A02D0032A00D11846FEF7E4
:10175000CFFC6043E9E7000002030405060708091F
:101760000A0B0C0D0E0F10100102030405060708EA
:10177000090A0B0C0D0E0F100010024000127A0027
:10178000006CDC02FEB504460078F04EF04DC00758
:1017900048D068680007800F01281FD068680007DC
:1017A000800F022804D16868C003800F022815D07A
:1017B0006168012919D001208004002901D0052980
:1017C00017D02968B143296029688143296060687E
:1017D00000281BD0FFF79AFE074613E02868800315
:1017E00020D56068002876D01CE028683043286047
:1017F000EDE7296801432960F7E7FFF787FEC01B83
:10180000642869D828688003F7D50BE0FFF77EFECF
:10181000074604E0FFF77AFEC01B6428F1D8286869
:101820008003F7D4207880073ED568680007800FD2
:1018300014D068680007800F022804D16868C003CC
:10184000800F01280AD0E068002828681DD00121F7
:1018500008432860FFF75AFE07460BE02868800718
:101860000BD5E068012836D107E0FFF74FFEC01B1B
:101870000228C6D828688007F7D52868F821884349
:101880002169C900084328600EE040084000286034
:10189000FFF73CFE074604E0FFF738FEC01B0228B6
:1018A000AFD828688007F7D42078000724D5E069EE
:1018B0000028686A11D0012108436862FFF726FEFC
:1018C000074604E0FFF722FEC01B022899D8686A89
:1018D0008007F7D510E036E1D1E0400840006862AB
:1018E000FFF714FE074604E0FFF710FEC01B0228B6
:1018F00087D8686A8007F7D4207804274007002833
:1019000061DA00200190E869C00008D4E969B806EE
:101910000143E961E96901400120009101908D488E
:101920000168C90511D40168821511430160FFF7F0
:10193000EDFD009005E0FFF7E9FD0099401A6428ED
:1019400097D884480068C005F5D5A06801280AD05A
:10195000002801D0052811D0286A400840002862DC
:10196000286AB84302E0286A012108432862A06877
:10197000002812D0FFF7CAFD00900AE0286A384319
:101980002862F0E7FFF7C2FD0099411A72488142D0
:1019900075D8286A8007F5D50DE0FFF7B7FD0090F0
:1019A00006E0FFF7B3FD0099411A6B48814266D803
:1019B000286A8007F5D40198002804D0E96901203D
:1019C00000078143E9612078C00635D560690128A8
:1019D0000CD0401D686B24D038436863686B4008A6
:1019E00040006863FFF792FD074622E0686B3843CA
:1019F0006863686B012108436863FFF787FD07464A
:101A000004E0FFF783FDC01B022838D8686B80070D
:101A1000F7D5686BF8218843A169C900084368635A
:101A20000AE0B8436863F4E7FFF770FDC01B0228C3
:101A300025D8686B8007F7D42078800637D568688A
:101A40000007800F032813D068680007800F022862
:101A500004D16868C003800F032809D0206A0028D9
:101A6000686B16D030436863FFF750FD06460CE004
:101A7000686BC0031BD5206A012864D117E05BE0C6
:101A8000FFF744FD801B022856D8686BC003F7D5CA
:101A90000DE0B0436863FFF739FD064604E0FFF749
:101AA00035FD801B022847D8686BC003F7D4606AF5
:101AB000002846D069680907890F022943D001260A
:101AC00036060228286805D0B0432860FFF71EFDBF
:101AD000044633E0B0432860FFF718FD074604E0F2
:101AE000FFF714FDC01B022826D828688001F7D410
:101AF000E86A216B000900010843E862A16AE06A14
:101B0000084369687B22D2039143084368602868D0
:101B100030432860FFF7FAFC044604E0FFF7F6FCC8
:101B2000001B022808D828688001F7D509E0FFF7D4
:101B3000EDFC001B022801D90320FEBD28688001AE
:101B4000F5D40020FEBD0120FEBD00000000010014
:101B5000001002400070004088130000094910B5D1
:101B6000401E884201D9012010BD074C606103214D
:101B7000081F00F073F80020A061072020610020FA
:101B800010BD0000FFFFFF0000E000E0FEE70000E6
:101B900010B510A000F08AF9144841690122D2045E
:101BA0001143416112480268552109030A4302604A
:101BB00042680F239B019A43426082688A43826095
:101BC000C168FF2212039143C1600AA000F06EF9C0
:101BD00010BD0000496E697469616C697A696E674D
:101BE000204C4544732E2E2E0A00000000100240A7
:101BF000000800484C454420496E697469616C696D
:101C00007A6174696F6E20436F6D706C65746521C5
:101C10000A000000704700008307FF22DB0E9A4095
:101C20008907090E994000280BDA0007000F0838D1
:101C3000830808489B001818C36993430B43C3618A
:101C40007047830804489B001B181868904308439A
:101C50001860704700ED00E000E400E08307FF2219
:101C6000DB0E9A408907090E994000280BDA00071D
:101C7000000F0838830808489B001818C36993436D
:101C80000B43C3617047830804489B001B18186806
:101C9000904308431860704700ED00E000E400E066
:101CA0007047704710B5FFF737FC10BD10B592B004
:101CB00034216846FEF770FA00240F940220009049
:101CC0000D9401200E940390102009940490109418
:101CD0006846FFF757FD07200D900E940F940021E2
:101CE00010940DA8FFF75AFC12B010BD12480168FD
:101CF0000122114301604168104A114041600168AE
:101D00000F4A114001600168012292049143016071
:101D100041683F22120491434160C16A09090901E7
:101D2000C162016B074A11400163416B49084900D8
:101D30004163002181607047001002400CB8FF0829
:101D4000FFFFF6FE2CFEFCFF02480169490849002E
:101D5000016170470010004010B5044800F0A2FF78
:101D600000F04AFD02490120087010BD0038014012
:101D70003800002010B51748416901229204114330
:101D800041618169121111438161134801680F2279
:101D9000120391430160016805225203114301605F
:101DA000016A0902090A0162FFF7A2FCE121490266
:101DB000FEF79EF90949C86008682D2210430860A3
:101DC00001200749C006086001211B20FFF724FFFE
:101DD00010BD00000010024000040048003801401F
:101DE00000E100E00249C8790022CA717047000092
:101DF000380000200249887900228A71704700006B
:101E00003800002000B5044800F04CFF00F05EFDF3
:101E100002490120487000BD004800403800002001
:101E200001484078704700003800002010B51A487B
:101E300041690122D20411434161C1695210114329
:101E4000C161164801680F221202914301601448D3
:101E500001680522520211430160016A1122120435
:101E600011430162016A7722520491430162FFF734
:101E70003FFCE1214902FEF73BF90A49C8600868C6
:101E80002D221043086088040749086001211D20A5
:101E9000FFF7C2FE10BD0000001002400004004821
:101EA000000800480048004000E100E00FB410B511
:101EB00003A9044B044A029800F0FCF810BC08BCCB
:101EC00004B018476D2900086C0000200FB410B54D
:101ED00004A9074B02AA039800F0ECF8044602A9F3
:101EE000002000F083FC204610BC08BC04B018475A
:101EF000ED2700082021020C01D010211046020A13
:101F000001D010460839020901D01046091F820885
:101F100001D01046891E420801D0881E7047081A59
:101F2000704702E008C8121F08C1002AFAD17047A2
:101F30007047002001E001C1121F002AFBD1704749
:101F4000F0B51FB486B00998089A030D002102432A
:101F500014D05148514A18185043051411980128BB
:101F600010981AD0281A401C00264D4F4D49009653
:101F700001910490002812DA444211E011980124E2
:101F800049A3012801D11098C1430698119A846091
:101F90000360C26041600BB0F0BD4042E4E704461C
:101FA000210500203F4A001C51410391029012E09C
:101FB000E00707D032463B4601990098FEF7E0FA69
:101FC0000191009032463B4610461946FEF7D8FA7A
:101FD00006460F466410002CEAD10498039B0028A3
:101FE000029A0999089806DAFEF7CAFA019B009A44
:101FF000FEF7C6FA05E0FEF72BFB019B009AFEF701
:1020000027FB04460E460022284BFEF7B9FB03D8F7
:102010000020C043014607E00022254B2046314600
:10202000FEF7FCF9FEF78CFB102409E0002C0ADB1C
:102030000A220023FEF781F9079B30321A55641EED
:1020400002460A43F2D11122641C079B121B1C1981
:10205000119B012B03D0012308430ED10AE0084352
:1020600004D0112010900020119077E71098151AD5
:102070006D1E0BE01098824202DD00236D1C03E010
:10208000824201DA00236D1E002BEED006981199D2
:102090008260C16030C07EE701FCFFFF104D000090
:1020A000000014400000F03F300000000000F0434A
:1020B0000000E03FFFB597B00646002518E225284E
:1020C00077D100242746FD49049400E00443761CA0
:1020D00032780120203A90400842F7D130782A28FF
:1020E0000ED00222307801463039092916D80499D9
:1020F0000A235943303940181443761C0490F1E701
:10210000189802C804911890002904DA01204003AD
:1021100004434842049002200443761C30782E2861
:1021200014D1042004437078761C2A2809D1189809
:10213000761C80C8189009E00A214F43303FC71928
:10214000761C3078014630390929F5D930786C2869
:1021500010D006DC4C281AD068280ED06A2817D177
:1021600004E0742813D07A2812D110E00120400531
:1021700004430CE00121090501E0032109050C439A
:102180007178814203D1012000052418761C761C49
:102190003078119066280BD013DC58287DD009DCEC
:1021A00000287BD04528F6D04628F4D047281AD1FD
:1021B000A5E118E0632835D0642870D0652812D1D5
:1021C0009DE170286CD008DC6728F1D069287BD0AD
:1021D0006E280DD06F2806D1BAE073282ED075284E
:1021E00071D0782859D01A9A199990476D1C7EE1C0
:1021F0006002400F022809D003280DD00428189847
:1022000001680DD00D60001D189070E11898EA1754
:1022100001680D604A60F6E7189801680D80F2E7E2
:102220000D70F0E718986A4601781172001D189039
:102230000020507202A80090012005E0189802C802
:10224000189000200091C04361070DD5002101E0E6
:102250000199491C0191B94212DA8142F8DB009AD6
:10226000515C0029F4D10BE0002101E00199491CE7
:1022700001918142FADB019A0099895C0029F5D12C
:10228000019904981A9B471A21463846199A00F07A
:1022900097FA0199401945180BE04FE02CE113E043
:1022A0004EE0009800990078491C00911A9A1999FB
:1022B00090470198401E0190401CF2D121463846BB
:1022C0001A9B199A10E137E00A2000210090019131
:1022D0006002410F022907D0189A01CA1892C2174A
:1022E0009446032908D00AE01898C01DC108C90007
:1022F00005C91891944607E000B2C2179446042914
:1023000002D140B2C1178C4600226146944506DADC
:102310000A460021404291418C462D2102E02105D0
:1023200004D52B216A461173012103E0E10701D096
:102330002021F7E7029155E00A200AE0102008E08A
:10234000102000900021042004430191082703E09D
:1023500008200021019100906002410F022907D05E
:10236000189A01CA189200229446032908D008E05E
:102370001898C01DC108C90005C91891944603E00A
:1023800080B2042900D1C0B200210291210729D5D1
:102390001199702906D0009A1021019B4A401A43D6
:1023A00005D00EE040216A461173012108E0614624
:1023B000014306D030216A461173119951730221ED
:1023C0000291009A0821019B4A401A430AD16146B2
:1023D000014301D1610705D530216A4611730121FE
:1023E0007F1E02911199582904D035A10E910DA993
:1023F0000D910DE037A1F9E76146019B009AFDF7C9
:102400009CFF0E9B8C469B5C0D9A521E0D92137086
:1024100061460143F0D10D9805A9081A20300190BA
:10242000600703D501200004844300E001270198E0
:10243000874201DD381A00E0002001990090411820
:10244000029809180498401A0490E00306D4214623
:102450001A9B199A049800F0B3F94519002706E071
:1024600003A81A9AC05D199990476D1C7F1C0298A9
:102470008742F5DBE0030CD521461A9B199A049894
:1024800000F09EF9451904E01A9A302019999047F6
:102490006D1C0099481E00900029F5DC08E00D989D
:1024A0000D990078491C0D911A9A199990476D1C45
:1024B0000199481E01900029F1DC63E1092801001F
:1024C00030313233343536373839616263646566AA
:1024D000000000003031323334353637383941426C
:1024E000434445460000000000F05AF94519761CA7
:1024F0003078002800D0E2E528461BB0F0BD600728
:1025000000D406271898C01DC108C90048680A6889
:102510000831C30FDB071891190001D09CA108E016
:10252000210501D59BA104E0E10701D09AA100E0BB
:102530009AA1430011985B08109165280CD006DC25
:10254000452809D046281DD0472841D141E06628BA
:1025500018D067283CD13CE00021112F01DB11206D
:1025600000E0781C0191009008A911A8FFF7E8FC91
:10257000139905910021119A15927F1C12980197C9
:10258000009150E00120C00703900120019008A9AC
:10259000009711A8FFF7D4FC139A14990592002212
:1025A000119B009212981593059A0192002901D06F
:1025B000104602E0791C40180190381A01D50198A4
:1025C00004E04042401E0090781C0190C01B029025
:1025D00043E0012F00DA01270021112F01DD112036
:1025E00000E038460191009008A911A8FFF7A8FC67
:1025F00013990591119A0021129815920091019753
:1026000021070CD40599B94201DB019900E0019141
:10261000012904DD159A491E515C302906D0B842C3
:1026200001DA011D05DA0121029115E00199491E27
:10263000EDE7002805DC0099411800910199091A7D
:1026400003E0019A411C914200DD01910099401A7A
:10265000401C02900120C0070390200706D4029975
:102660000198814202DB0020C043029000206946AD
:10267000C87707AF012103980337C907884224D0E0
:10268000022011902B201290039800280CDA40426F
:1026900003902D20129007E00A210398FDF728FDF2
:1026A00030317F1E039039701199481E1190002916
:1026B000F2DC03980028EFD1791E12980870307868
:1026C000202108404530BF1E387006A8C01BC01D21
:1026D000039010980078002800D00120019941183B
:1026E0000298C0170918039809180498401A401E48
:1026F0000490E00306D421461A9B199A049800F02E
:102700005FF8451910980078002803D01A9A199993
:1027100090476D1CE00324D521461A9B199A049812
:1027200000F04EF845191CE00098002807DB0099DE
:102730000598884203DD1598405C199901E01999C4
:1027400030201A9A904700986D1C401C0090029807
:10275000401E0290002804D11A9A2E201999904701
:102760006D1C0199481E01900029DDDC05E03878D8
:102770001A9A7F1C199990476D1C0399481E039063
:102780000029F4DC21461A9B199A0498ACE6000053
:102790002D0000002B0000002000000000000000C1
:1027A000F8B5044600251E461746880404D405E003
:1027B00039462020B0476D1C641EF9D52846F8BD67
:1027C000FFB50446002581B01E46C80301D5302759
:1027D00000E02027880404D505E038460399B04777
:1027E0006D1C641EF9D5284605B0F0BD0A68531C5F
:1027F0000B60107070470000F8B5324CE268511C55
:10280000E1602146183188540025002A03D00123B5
:10281000012A08D00DE0E571A571A5726561EE2869
:1028200000D1E571F8BD0E78BB2E10D00E78EE2EDB
:1028300011D0A07A0028F5D06069461CB242F1D1CF
:102840000122E271012837D006280BD034E0A372B0
:1028500048786061F8BD012800D00020A071E560D3
:10286000E5712BE0C8788A78000210434A7900B2FB
:102870000B7912021A4312B20092CA7989791202B4
:102880000A4317B2FDF735FD0321C943FDF725FDC6
:102890000D4EB0603846FDF72CFD0321C943FDF70E
:1028A0001CFD70600098FDF724FD0321C943FDF76E
:1028B00014FD306001206071E560A571A57265614D
:1028C000F8BD0000380000207000002010B5002284
:1028D0000949FF2808D00C690123012C06D00C6996
:1028E000022C08D108714B720A6101E0C8700B72AA
:1028F0000869401C086110BD38000020EFF310810A
:1029000072B60268531C0360002900D162B61046FB
:102910007047000010B507A0FFF7C8FA00F052F9A1
:10292000FFF736F900F0D0F8FDF7D6FF07A0FFF764
:10293000BDFA10BD496E697469616C697A696E6728
:102940002043686169722E2E2E0A00004368616977
:102950007220496E697469616C697A6174696F6E1D
:1029600020436F6D706C657465210A0070B50F4A65
:102970000023DB43914204D10D4D04462A68082A06
:1029800001D3184670BD0A48001D8454521C2A60A9
:10299000082A01D00A2C06D105490648091DFEF770
:1029A00041FB00202860204670BD00006C00002024
:1029B0006000002000FE0200F0B591B035A0FFF7E6
:1029C00075FA00F079F900F023F900242546FEF7A6
:1029D000DDFA53E0204600F049FA284600F040FABC
:1029E000FEF7D0FA002823D00EA8FDF771FF0F984C
:1029F00000F09CF90E9800F077F900F0A7F800902D
:102A000000F0AAF8074600F095F8064600F098F89E
:102A10000099039100902B46224602970196224985
:102A200004A8FFF753FA04A800F034F9FEF7AEFA51
:102A300000F034FA00F03CF90028CBD000F0A2F806
:102A4000612806D0642808D073280DD0772815D1C6
:102A50000EE0C8212046193802E02046C82119306E
:102A600000F0A5F8044609E0C8212846193802E01C
:102A70002846C821193000F09AF8054600F082F87F
:102A80007128D7D109A000F005F90EA000F002F9D5
:102A900011B0F0BD456E61626C696E672047616D73
:102AA00065204D6F64650A00383000084C6561761A
:102AB000696E672047616D65204D6F64652E2E2E0F
:102AC000000000000A0D000010B504A0FFF7EEF9A9
:102AD000FFF7ACF909A0FFF7E9F910BD496E697479
:102AE00069616C697A696E672047616D6520506124
:102AF000727365722E2E2E0A0000000047616D650C
:102B00002050617273657220496E697469616C69E5
:102B10007A6174696F6E20436F6D706C65746521A6
:102B20000A0000000249887800228A704A707047C3
:102B3000380000200148C0687047000008000020ED
:102B40000148006A70470000080000200148406901
:102B500070470000080000200148806A70470000AC
:102B600008000020054A0021517105490A680260E9
:102B70004A68426089688160704700003800002020
:102B80007000002010B5FFF7CDFF10BD014840795F
:102B9000704700003800002010B5FEF7C5FCFFF7B5
:102BA00085F8FFF7B7FEFFF707FF002010BD70B5EF
:102BB0000C460546FDF7B2FA002D01DA081970BD82
:102BC000084670BD10B504A0FFF770F9FEF714FBBE
:102BD00007A0FFF76BF910BD496E697469616C69F4
:102BE0007A696E67204D6F746F72732E2E2E0A00F5
:102BF0004D6F746F7220496E697469616C697A6196
:102C000074696F6E20436F6D706C657465210A0086
:102C100010B509A000F03EF80DA000F03BF80DA0A3
:102C200000F038F80AA000F035F815A000F032F8EE
:102C300007A000F02FF810BD0A0D0947616D65204F
:102C40006D6F64652073656C656374656400000076
:102C50000A0D000052656164696E6720526F6C6CEA
:102C600020616E6420506974636820285072657317
:102C700073207120746F2071756974290000000041
:102C8000466F726D61743A20526F6C6C2C5069748F
:102C90006368000010B50146014800F0F2F810BD6D
:102CA00000480040C1698906FCD5808CC0B27047DD
:102CB00010B5FFF7B5F810BD10B505A0FFF7F6F891
:102CC000002000F0D3F8002000F0CAF810BD00008A
:102CD0005265736574696E670A0000000148807868
:102CE000704700005000002010B5FF21C9050B4CB3
:102CF000C84203D30A49FDF7B3FA05E00949FDF7D5
:102D0000AFFA0949FDF7A8FAFDF7FEFAE060C8211D
:102D1000E068FDF703FAE16010BD00000800002044
:102D2000E4380EBFE4380E3F0000484370B5FF2181
:102D3000C9050D4D0D4CC84209D30D49FDF737FAB1
:102D40002946FDF78DFA0B49FDF731FA02E02946D5
:102D5000FDF786FAFDF7D8FA2062C821206AFDF750
:102D6000DDF9216270BD0000295C0F3F08000020E2
:102D7000000034430000C84210B5002901D0054BC3
:102D800000E0054B002A00D0012201461846FEF75C
:102D9000B7FB10BD000400480008004810B5044906
:102DA00088700246012000218002FFF7E5FF10BD78
:102DB00008000020024610B501200021000300F0A9
:102DC00015F810BD10B5044948710121484002466C
:102DD0000420FFF7D1FF10BD0800002010B5024607
:102DE0000121082000F002F810BD0000F8B5194CD0
:102DF00006461546002912D0174F082E23D1002D64
:102E000021D06079002803D0A06AC821401C02E0CC
:102E1000A06AC821401EFFF7CAFEA06213E001208D
:102E20000E4F000386420ED1002D0CD0A078002852
:102E300003D06069C821401C02E06069C821401EBF
:102E4000FFF7B5FE60612A4631463846FEF758FB6B
:102E5000F8BD0000080000200004004800080048F9
:102E60000149886070470000080000200149C861DE
:102E70007047000008000020C2691206FCD50185D9
:102E8000704730B50C460546002303E02846FFF79F
:102E9000F3FF5B1CE15C0029F8D130BDF0B50126E1
:102EA00089B00020594C07900690E0693546A16A28
:102EB000401AC821FFF77BFE0746A06AE169401A65
:102EC000C821FFF774FE0390A0686169401AC82109
:102ED000FFF76DFE00906069A168401AC821FFF7F6
:102EE00066FE02900398874201DA012004E08742DF
:102EF0001EDC002F02D02079079019E0E06A0A2832
:102F00001CDB0020E062206AA16A401AC821FFF79A
:102F10004EFE0746A06A216A401AC821FFF747FE05
:102F2000022F01DB022801DA002601E0206AA062FC
:102F30000299009888420BDA01200EE0206A616A4B
:102F4000884202D1E06A401C00E00020E062EBE72A
:102F500088422ADC002802D06078069025E060696B
:102F6000002802DB6069322805DB6069962818DDDD
:102F70006069C82815DAA0690A283CDB0020A06136
:102F8000E0686169401AC821FFF711FE07466069D1
:102F9000E168401AC821FFF70AFE022F01DB022870
:102FA00001DA002501E0E06860610798FFF70AFF99
:102FB0000698FFF7F3FE002E02D00120FFF70EFF68
:102FC000002D02D00120FFF7F5FE0A20FEF7DEF902
:102FD000002E02D00020FFF701FF002D02D00020BC
:102FE000FFF7E8FE0A20FEF7D1F9206A6062E06888
:102FF000206109B0F0BDE0682169884202D1A06972
:10300000401C00E00020A061CBE700000800002089
:103010000000000000000000010203040607080988
:1030200001000101400000009000002090040020F9
:103030004005002000000000745F726F6C6C3A2540
:10304000642C20745F70697463683A25642C206175
:103050005F726F6C6C3A25642C20615F70697463D9
:10306000683A25642C20635F726F6C6C3A25642C7F
:1030700020635F70697463683A25640D0A0000007C
:1030800043616C69627261746520746865204D618A
:10309000676E65746F6D657465722C206279206D42
:1030A0006F76696E67207468652063686169722055
:1030B000696E2061206669677572652038207061CD
:1030C000747465726E2028726F636B20666F7277FE
:1030D000617264207768696C652074696C74696ECC
:1030E0006720726967687420616E64207669736511
:1030F000207665727361290D0A00000043616C69D6
:1031000062726174652074686520416363656C65F3
:10311000726F6D657465722C206279206F726965BB
:103120006E74696E672074686520636861697220D7
:10313000696E203620737461626C6520706F7369EC
:1031400074696F6E20666F72206120706572696F9E
:1031500064206F66206120666577207365636F6EFB
:103160006473207768696C65206D616B696E672098
:103170007375726520746865726520697320736C5D
:103180006F77206D6F76656D656E742062657477FC
:1031900065656E206561636820706F736974696F1F
:1031A0006E2E0D0A0000000043616C69627261744A
:1031B0006520746865204779726F73636F70652C42
:1031C000206279206B656570696E67207468652080
:1031D000636861697220696E206120737461626C3A
:1031E0006520706F736974696F6E20666F722061FD
:1031F00020666577207365636F6E64732E0D0A0019
:10320000203200080000002070000000221F00088B
:103210009032000870000020F8080000321F0008FB
:10322000000000000000000000000000000000009E
:10323000000000000000000000000000000000008E
:10324000000000000000000000000000000000007E
:10325000000000000000000000000000000000006E
:10326000000000000000000000000000000000005E
:1032700000000000000000000000000000127A00C2
:10328000000000000000000000000000000000003E
:04000005080000C12E
:00000001FF
